{
	"contracts/Voting.sol": {
		"Voting": {
			"abi": [
				{
					"inputs": [],
					"stateMutability": "nonpayable",
					"type": "constructor"
				},
				{
					"inputs": [
						{
							"internalType": "string",
							"name": "_name",
							"type": "string"
						}
					],
					"name": "addCandidate",
					"outputs": [],
					"stateMutability": "nonpayable",
					"type": "function"
				},
				{
					"inputs": [],
					"name": "admin",
					"outputs": [
						{
							"internalType": "address",
							"name": "",
							"type": "address"
						}
					],
					"stateMutability": "view",
					"type": "function"
				},
				{
					"inputs": [
						{
							"internalType": "uint256",
							"name": "",
							"type": "uint256"
						}
					],
					"name": "candidates",
					"outputs": [
						{
							"internalType": "string",
							"name": "name",
							"type": "string"
						},
						{
							"internalType": "uint256",
							"name": "voteCount",
							"type": "uint256"
						}
					],
					"stateMutability": "view",
					"type": "function"
				},
				{
					"inputs": [],
					"name": "candidatesCount",
					"outputs": [
						{
							"internalType": "uint256",
							"name": "",
							"type": "uint256"
						}
					],
					"stateMutability": "view",
					"type": "function"
				},
				{
					"inputs": [],
					"name": "getWinner",
					"outputs": [
						{
							"internalType": "string",
							"name": "winnerName",
							"type": "string"
						},
						{
							"internalType": "uint256",
							"name": "winnerVote",
							"type": "uint256"
						}
					],
					"stateMutability": "view",
					"type": "function"
				},
				{
					"inputs": [
						{
							"internalType": "uint256",
							"name": "_candidateId",
							"type": "uint256"
						}
					],
					"name": "vote",
					"outputs": [],
					"stateMutability": "nonpayable",
					"type": "function"
				},
				{
					"inputs": [
						{
							"internalType": "address",
							"name": "",
							"type": "address"
						}
					],
					"name": "voters",
					"outputs": [
						{
							"internalType": "bool",
							"name": "",
							"type": "bool"
						}
					],
					"stateMutability": "view",
					"type": "function"
				}
			],
			"devdoc": {
				"kind": "dev",
				"methods": {},
				"version": 1
			},
			"evm": {
				"assembly": "    /* \"contracts/Voting.sol\":58:1358  contract Voting{... */\n  mstore(0x40, 0x80)\n    /* \"contracts/Voting.sol\":314:315  0 */\n  0x00\n    /* \"contracts/Voting.sol\":284:315  uint public candidatesCount = 0 */\n  0x02\n  sstore\n    /* \"contracts/Voting.sol\":106:155  constructor (){... */\n  callvalue\n  dup1\n  iszero\n  tag_1\n  jumpi\n  revert(0x00, 0x00)\ntag_1:\n  pop\n    /* \"contracts/Voting.sol\":138:148  msg.sender */\n  caller\n    /* \"contracts/Voting.sol\":130:135  admin */\n  0x00\n  0x00\n    /* \"contracts/Voting.sol\":130:148  admin = msg.sender */\n  0x0100\n  exp\n  dup2\n  sload\n  dup2\n  0xffffffffffffffffffffffffffffffffffffffff\n  mul\n  not\n  and\n  swap1\n  dup4\n  0xffffffffffffffffffffffffffffffffffffffff\n  and\n  mul\n  or\n  swap1\n  sstore\n  pop\n    /* \"contracts/Voting.sol\":58:1358  contract Voting{... */\n  dataSize(sub_0)\n  dup1\n  dataOffset(sub_0)\n  0x00\n  codecopy\n  0x00\n  return\nstop\n\nsub_0: assembly {\n        /* \"contracts/Voting.sol\":58:1358  contract Voting{... */\n      mstore(0x40, 0x80)\n      callvalue\n      dup1\n      iszero\n      tag_1\n      jumpi\n      revert(0x00, 0x00)\n    tag_1:\n      pop\n      jumpi(tag_2, lt(calldatasize, 0x04))\n      shr(0xe0, calldataload(0x00))\n      dup1\n      0x462e91ec\n      gt\n      tag_10\n      jumpi\n      dup1\n      0x462e91ec\n      eq\n      tag_6\n      jumpi\n      dup1\n      0x8e7ea5b2\n      eq\n      tag_7\n      jumpi\n      dup1\n      0xa3ec138d\n      eq\n      tag_8\n      jumpi\n      dup1\n      0xf851a440\n      eq\n      tag_9\n      jumpi\n      jump(tag_2)\n    tag_10:\n      dup1\n      0x0121b93f\n      eq\n      tag_3\n      jumpi\n      dup1\n      0x2d35a8a2\n      eq\n      tag_4\n      jumpi\n      dup1\n      0x3477ee2e\n      eq\n      tag_5\n      jumpi\n    tag_2:\n      revert(0x00, 0x00)\n        /* \"contracts/Voting.sol\":634:895  function vote(uint _candidateId) public {... */\n    tag_3:\n      tag_11\n      0x04\n      dup1\n      calldatasize\n      sub\n      dup2\n      add\n      swap1\n      tag_12\n      swap2\n      swap1\n      tag_13\n      jump\t// in\n    tag_12:\n      tag_14\n      jump\t// in\n    tag_11:\n      stop\n        /* \"contracts/Voting.sol\":284:315  uint public candidatesCount = 0 */\n    tag_4:\n      tag_15\n      tag_16\n      jump\t// in\n    tag_15:\n      mload(0x40)\n      tag_17\n      swap2\n      swap1\n      tag_18\n      jump\t// in\n    tag_17:\n      mload(0x40)\n      dup1\n      swap2\n      sub\n      swap1\n      return\n        /* \"contracts/Voting.sol\":233:278  mapping (uint => Candidate) public candidates */\n    tag_5:\n      tag_19\n      0x04\n      dup1\n      calldatasize\n      sub\n      dup2\n      add\n      swap1\n      tag_20\n      swap2\n      swap1\n      tag_13\n      jump\t// in\n    tag_20:\n      tag_21\n      jump\t// in\n    tag_19:\n      mload(0x40)\n      tag_22\n      swap3\n      swap2\n      swap1\n      tag_23\n      jump\t// in\n    tag_22:\n      mload(0x40)\n      dup1\n      swap2\n      sub\n      swap1\n      return\n        /* \"contracts/Voting.sol\":476:628  function addCandidate(string memory _name) public onlyAdmin{... */\n    tag_6:\n      tag_24\n      0x04\n      dup1\n      calldatasize\n      sub\n      dup2\n      add\n      swap1\n      tag_25\n      swap2\n      swap1\n      tag_26\n      jump\t// in\n    tag_25:\n      tag_27\n      jump\t// in\n    tag_24:\n      stop\n        /* \"contracts/Voting.sol\":901:1356  function getWinner() public view returns (string memory winnerName, uint winnerVote){... */\n    tag_7:\n      tag_28\n      tag_29\n      jump\t// in\n    tag_28:\n      mload(0x40)\n      tag_30\n      swap3\n      swap2\n      swap1\n      tag_23\n      jump\t// in\n    tag_30:\n      mload(0x40)\n      dup1\n      swap2\n      sub\n      swap1\n      return\n        /* \"contracts/Voting.sol\":322:361  mapping (address => bool) public voters */\n    tag_8:\n      tag_31\n      0x04\n      dup1\n      calldatasize\n      sub\n      dup2\n      add\n      swap1\n      tag_32\n      swap2\n      swap1\n      tag_33\n      jump\t// in\n    tag_32:\n      tag_34\n      jump\t// in\n    tag_31:\n      mload(0x40)\n      tag_35\n      swap2\n      swap1\n      tag_36\n      jump\t// in\n    tag_35:\n      mload(0x40)\n      dup1\n      swap2\n      sub\n      swap1\n      return\n        /* \"contracts/Voting.sol\":79:99  address public admin */\n    tag_9:\n      tag_37\n      tag_38\n      jump\t// in\n    tag_37:\n      mload(0x40)\n      tag_39\n      swap2\n      swap1\n      tag_40\n      jump\t// in\n    tag_39:\n      mload(0x40)\n      dup1\n      swap2\n      sub\n      swap1\n      return\n        /* \"contracts/Voting.sol\":634:895  function vote(uint _candidateId) public {... */\n    tag_14:\n        /* \"contracts/Voting.sol\":693:699  voters */\n      0x03\n        /* \"contracts/Voting.sol\":693:711  voters[msg.sender] */\n      0x00\n        /* \"contracts/Voting.sol\":700:710  msg.sender */\n      caller\n        /* \"contracts/Voting.sol\":693:711  voters[msg.sender] */\n      0xffffffffffffffffffffffffffffffffffffffff\n      and\n      0xffffffffffffffffffffffffffffffffffffffff\n      and\n      dup2\n      mstore\n      0x20\n      add\n      swap1\n      dup2\n      mstore\n      0x20\n      add\n      0x00\n      keccak256\n      0x00\n      swap1\n      sload\n      swap1\n      0x0100\n      exp\n      swap1\n      div\n      0xff\n      and\n        /* \"contracts/Voting.sol\":692:711  !voters[msg.sender] */\n      iszero\n        /* \"contracts/Voting.sol\":684:729  require(!voters[msg.sender], \"Already voted\") */\n      tag_42\n      jumpi\n      mload(0x40)\n      0x08c379a000000000000000000000000000000000000000000000000000000000\n      dup2\n      mstore\n      0x04\n      add\n      tag_43\n      swap1\n      tag_44\n      jump\t// in\n    tag_43:\n      mload(0x40)\n      dup1\n      swap2\n      sub\n      swap1\n      revert\n    tag_42:\n        /* \"contracts/Voting.sol\":762:777  candidatesCount */\n      sload(0x02)\n        /* \"contracts/Voting.sol\":747:759  _candidateId */\n      dup2\n        /* \"contracts/Voting.sol\":747:777  _candidateId < candidatesCount */\n      lt\n        /* \"contracts/Voting.sol\":739:806  require(_candidateId < candidatesCount, \"Candidate does not exist\") */\n      tag_45\n      jumpi\n      mload(0x40)\n      0x08c379a000000000000000000000000000000000000000000000000000000000\n      dup2\n      mstore\n      0x04\n      add\n      tag_46\n      swap1\n      tag_47\n      jump\t// in\n    tag_46:\n      mload(0x40)\n      dup1\n      swap2\n      sub\n      swap1\n      revert\n    tag_45:\n        /* \"contracts/Voting.sol\":838:842  true */\n      0x01\n        /* \"contracts/Voting.sol\":817:823  voters */\n      0x03\n        /* \"contracts/Voting.sol\":817:835  voters[msg.sender] */\n      0x00\n        /* \"contracts/Voting.sol\":824:834  msg.sender */\n      caller\n        /* \"contracts/Voting.sol\":817:835  voters[msg.sender] */\n      0xffffffffffffffffffffffffffffffffffffffff\n      and\n      0xffffffffffffffffffffffffffffffffffffffff\n      and\n      dup2\n      mstore\n      0x20\n      add\n      swap1\n      dup2\n      mstore\n      0x20\n      add\n      0x00\n      keccak256\n      0x00\n        /* \"contracts/Voting.sol\":817:842  voters[msg.sender] = true */\n      0x0100\n      exp\n      dup2\n      sload\n      dup2\n      0xff\n      mul\n      not\n      and\n      swap1\n      dup4\n      iszero\n      iszero\n      mul\n      or\n      swap1\n      sstore\n      pop\n        /* \"contracts/Voting.sol\":852:862  candidates */\n      0x01\n        /* \"contracts/Voting.sol\":852:876  candidates[_candidateId] */\n      0x00\n        /* \"contracts/Voting.sol\":863:875  _candidateId */\n      dup3\n        /* \"contracts/Voting.sol\":852:876  candidates[_candidateId] */\n      dup2\n      mstore\n      0x20\n      add\n      swap1\n      dup2\n      mstore\n      0x20\n      add\n      0x00\n      keccak256\n        /* \"contracts/Voting.sol\":852:886  candidates[_candidateId].voteCount */\n      0x01\n      add\n      0x00\n        /* \"contracts/Voting.sol\":852:888  candidates[_candidateId].voteCount++ */\n      dup2\n      sload\n      dup1\n      swap3\n      swap2\n      swap1\n      tag_48\n      swap1\n      tag_49\n      jump\t// in\n    tag_48:\n      swap2\n      swap1\n      pop\n      sstore\n      pop\n        /* \"contracts/Voting.sol\":634:895  function vote(uint _candidateId) public {... */\n      pop\n      jump\t// out\n        /* \"contracts/Voting.sol\":284:315  uint public candidatesCount = 0 */\n    tag_16:\n      sload(0x02)\n      dup2\n      jump\t// out\n        /* \"contracts/Voting.sol\":233:278  mapping (uint => Candidate) public candidates */\n    tag_21:\n      mstore(0x20, 0x01)\n      dup1\n      0x00\n      mstore\n      keccak256(0x00, 0x40)\n      0x00\n      swap2\n      pop\n      swap1\n      pop\n      dup1\n      0x00\n      add\n      dup1\n      sload\n      tag_50\n      swap1\n      tag_51\n      jump\t// in\n    tag_50:\n      dup1\n      0x1f\n      add\n      0x20\n      dup1\n      swap2\n      div\n      mul\n      0x20\n      add\n      mload(0x40)\n      swap1\n      dup2\n      add\n      0x40\n      mstore\n      dup1\n      swap3\n      swap2\n      swap1\n      dup2\n      dup2\n      mstore\n      0x20\n      add\n      dup3\n      dup1\n      sload\n      tag_52\n      swap1\n      tag_51\n      jump\t// in\n    tag_52:\n      dup1\n      iszero\n      tag_53\n      jumpi\n      dup1\n      0x1f\n      lt\n      tag_54\n      jumpi\n      0x0100\n      dup1\n      dup4\n      sload\n      div\n      mul\n      dup4\n      mstore\n      swap2\n      0x20\n      add\n      swap2\n      jump(tag_53)\n    tag_54:\n      dup3\n      add\n      swap2\n      swap1\n      0x00\n      mstore\n      keccak256(0x00, 0x20)\n      swap1\n    tag_55:\n      dup2\n      sload\n      dup2\n      mstore\n      swap1\n      0x01\n      add\n      swap1\n      0x20\n      add\n      dup1\n      dup4\n      gt\n      tag_55\n      jumpi\n      dup3\n      swap1\n      sub\n      0x1f\n      and\n      dup3\n      add\n      swap2\n    tag_53:\n      pop\n      pop\n      pop\n      pop\n      pop\n      swap1\n      dup1\n      0x01\n      add\n      sload\n      swap1\n      pop\n      dup3\n      jump\t// out\n        /* \"contracts/Voting.sol\":476:628  function addCandidate(string memory _name) public onlyAdmin{... */\n    tag_27:\n        /* \"contracts/Voting.sol\":420:425  admin */\n      0x00\n      0x00\n      swap1\n      sload\n      swap1\n      0x0100\n      exp\n      swap1\n      div\n      0xffffffffffffffffffffffffffffffffffffffff\n      and\n        /* \"contracts/Voting.sol\":406:425  msg.sender == admin */\n      0xffffffffffffffffffffffffffffffffffffffff\n      and\n        /* \"contracts/Voting.sol\":406:416  msg.sender */\n      caller\n        /* \"contracts/Voting.sol\":406:425  msg.sender == admin */\n      0xffffffffffffffffffffffffffffffffffffffff\n      and\n      eq\n        /* \"contracts/Voting.sol\":398:452  require(msg.sender == admin, \"Only admin can do this\") */\n      tag_57\n      jumpi\n      mload(0x40)\n      0x08c379a000000000000000000000000000000000000000000000000000000000\n      dup2\n      mstore\n      0x04\n      add\n      tag_58\n      swap1\n      tag_59\n      jump\t// in\n    tag_58:\n      mload(0x40)\n      dup1\n      swap2\n      sub\n      swap1\n      revert\n    tag_57:\n        /* \"contracts/Voting.sol\":575:594  Candidate(_name, 0) */\n      mload(0x40)\n      dup1\n      0x40\n      add\n      0x40\n      mstore\n      dup1\n        /* \"contracts/Voting.sol\":585:590  _name */\n      dup3\n        /* \"contracts/Voting.sol\":575:594  Candidate(_name, 0) */\n      dup2\n      mstore\n      0x20\n      add\n        /* \"contracts/Voting.sol\":592:593  0 */\n      0x00\n        /* \"contracts/Voting.sol\":575:594  Candidate(_name, 0) */\n      dup2\n      mstore\n      pop\n        /* \"contracts/Voting.sol\":545:555  candidates */\n      0x01\n        /* \"contracts/Voting.sol\":545:572  candidates[candidatesCount] */\n      0x00\n        /* \"contracts/Voting.sol\":556:571  candidatesCount */\n      sload(0x02)\n        /* \"contracts/Voting.sol\":545:572  candidates[candidatesCount] */\n      dup2\n      mstore\n      0x20\n      add\n      swap1\n      dup2\n      mstore\n      0x20\n      add\n      0x00\n      keccak256\n        /* \"contracts/Voting.sol\":545:594  candidates[candidatesCount] = Candidate(_name, 0) */\n      0x00\n      dup3\n      add\n      mload\n      dup2\n      0x00\n      add\n      swap1\n      dup2\n      tag_61\n      swap2\n      swap1\n      tag_62\n      jump\t// in\n    tag_61:\n      pop\n      0x20\n      dup3\n      add\n      mload\n      dup2\n      0x01\n      add\n      sstore\n      swap1\n      pop\n      pop\n        /* \"contracts/Voting.sol\":604:619  candidatesCount */\n      0x02\n      0x00\n        /* \"contracts/Voting.sol\":604:621  candidatesCount++ */\n      dup2\n      sload\n      dup1\n      swap3\n      swap2\n      swap1\n      tag_63\n      swap1\n      tag_49\n      jump\t// in\n    tag_63:\n      swap2\n      swap1\n      pop\n      sstore\n      pop\n        /* \"contracts/Voting.sol\":476:628  function addCandidate(string memory _name) public onlyAdmin{... */\n      pop\n      jump\t// out\n        /* \"contracts/Voting.sol\":901:1356  function getWinner() public view returns (string memory winnerName, uint winnerVote){... */\n    tag_29:\n        /* \"contracts/Voting.sol\":943:967  string memory winnerName */\n      0x60\n        /* \"contracts/Voting.sol\":969:984  uint winnerVote */\n      0x00\n        /* \"contracts/Voting.sol\":995:1007  uint maxVote */\n      0x00\n        /* \"contracts/Voting.sol\":1010:1011  0 */\n      0x00\n        /* \"contracts/Voting.sol\":995:1011  uint maxVote = 0 */\n      swap1\n      pop\n        /* \"contracts/Voting.sol\":1021:1034  uint winnerId */\n      0x00\n        /* \"contracts/Voting.sol\":1037:1038  0 */\n      0x00\n        /* \"contracts/Voting.sol\":1021:1038  uint winnerId = 0 */\n      swap1\n      pop\n        /* \"contracts/Voting.sol\":1053:1059  uint i */\n      0x00\n        /* \"contracts/Voting.sol\":1062:1063  0 */\n      0x00\n        /* \"contracts/Voting.sol\":1053:1063  uint i = 0 */\n      swap1\n      pop\n        /* \"contracts/Voting.sol\":1049:1249  for(uint i = 0; i < candidatesCount; i++){... */\n    tag_65:\n        /* \"contracts/Voting.sol\":1069:1084  candidatesCount */\n      sload(0x02)\n        /* \"contracts/Voting.sol\":1065:1066  i */\n      dup2\n        /* \"contracts/Voting.sol\":1065:1084  i < candidatesCount */\n      lt\n        /* \"contracts/Voting.sol\":1049:1249  for(uint i = 0; i < candidatesCount; i++){... */\n      iszero\n      tag_66\n      jumpi\n        /* \"contracts/Voting.sol\":1134:1141  maxVote */\n      dup3\n        /* \"contracts/Voting.sol\":1108:1118  candidates */\n      0x01\n        /* \"contracts/Voting.sol\":1108:1121  candidates[i] */\n      0x00\n        /* \"contracts/Voting.sol\":1119:1120  i */\n      dup4\n        /* \"contracts/Voting.sol\":1108:1121  candidates[i] */\n      dup2\n      mstore\n      0x20\n      add\n      swap1\n      dup2\n      mstore\n      0x20\n      add\n      0x00\n      keccak256\n        /* \"contracts/Voting.sol\":1108:1131  candidates[i].voteCount */\n      0x01\n      add\n      sload\n        /* \"contracts/Voting.sol\":1108:1141  candidates[i].voteCount > maxVote */\n      gt\n        /* \"contracts/Voting.sol\":1104:1239  if (candidates[i].voteCount > maxVote){... */\n      iszero\n      tag_68\n      jumpi\n        /* \"contracts/Voting.sol\":1170:1180  candidates */\n      0x01\n        /* \"contracts/Voting.sol\":1170:1183  candidates[i] */\n      0x00\n        /* \"contracts/Voting.sol\":1181:1182  i */\n      dup3\n        /* \"contracts/Voting.sol\":1170:1183  candidates[i] */\n      dup2\n      mstore\n      0x20\n      add\n      swap1\n      dup2\n      mstore\n      0x20\n      add\n      0x00\n      keccak256\n        /* \"contracts/Voting.sol\":1170:1193  candidates[i].voteCount */\n      0x01\n      add\n      sload\n        /* \"contracts/Voting.sol\":1160:1193  maxVote = candidates[i].voteCount */\n      swap3\n      pop\n        /* \"contracts/Voting.sol\":1223:1224  i */\n      dup1\n        /* \"contracts/Voting.sol\":1212:1224  winnerId = i */\n      swap2\n      pop\n        /* \"contracts/Voting.sol\":1104:1239  if (candidates[i].voteCount > maxVote){... */\n    tag_68:\n        /* \"contracts/Voting.sol\":1086:1089  i++ */\n      dup1\n      dup1\n      0x01\n      add\n      swap2\n      pop\n      pop\n        /* \"contracts/Voting.sol\":1049:1249  for(uint i = 0; i < candidatesCount; i++){... */\n      jump(tag_65)\n    tag_66:\n      pop\n        /* \"contracts/Voting.sol\":1271:1281  candidates */\n      0x01\n        /* \"contracts/Voting.sol\":1271:1291  candidates[winnerId] */\n      0x00\n        /* \"contracts/Voting.sol\":1282:1290  winnerId */\n      dup3\n        /* \"contracts/Voting.sol\":1271:1291  candidates[winnerId] */\n      dup2\n      mstore\n      0x20\n      add\n      swap1\n      dup2\n      mstore\n      0x20\n      add\n      0x00\n      keccak256\n        /* \"contracts/Voting.sol\":1271:1296  candidates[winnerId].name */\n      0x00\n      add\n        /* \"contracts/Voting.sol\":1258:1296  winnerName = candidates[winnerId].name */\n      dup1\n      sload\n      tag_69\n      swap1\n      tag_51\n      jump\t// in\n    tag_69:\n      dup1\n      0x1f\n      add\n      0x20\n      dup1\n      swap2\n      div\n      mul\n      0x20\n      add\n      mload(0x40)\n      swap1\n      dup2\n      add\n      0x40\n      mstore\n      dup1\n      swap3\n      swap2\n      swap1\n      dup2\n      dup2\n      mstore\n      0x20\n      add\n      dup3\n      dup1\n      sload\n      tag_70\n      swap1\n      tag_51\n      jump\t// in\n    tag_70:\n      dup1\n      iszero\n      tag_71\n      jumpi\n      dup1\n      0x1f\n      lt\n      tag_72\n      jumpi\n      0x0100\n      dup1\n      dup4\n      sload\n      div\n      mul\n      dup4\n      mstore\n      swap2\n      0x20\n      add\n      swap2\n      jump(tag_71)\n    tag_72:\n      dup3\n      add\n      swap2\n      swap1\n      0x00\n      mstore\n      keccak256(0x00, 0x20)\n      swap1\n    tag_73:\n      dup2\n      sload\n      dup2\n      mstore\n      swap1\n      0x01\n      add\n      swap1\n      0x20\n      add\n      dup1\n      dup4\n      gt\n      tag_73\n      jumpi\n      dup3\n      swap1\n      sub\n      0x1f\n      and\n      dup3\n      add\n      swap2\n    tag_71:\n      pop\n      pop\n      pop\n      pop\n      pop\n      swap4\n      pop\n        /* \"contracts/Voting.sol\":1319:1329  candidates */\n      0x01\n        /* \"contracts/Voting.sol\":1319:1339  candidates[winnerId] */\n      0x00\n        /* \"contracts/Voting.sol\":1330:1338  winnerId */\n      dup3\n        /* \"contracts/Voting.sol\":1319:1339  candidates[winnerId] */\n      dup2\n      mstore\n      0x20\n      add\n      swap1\n      dup2\n      mstore\n      0x20\n      add\n      0x00\n      keccak256\n        /* \"contracts/Voting.sol\":1319:1349  candidates[winnerId].voteCount */\n      0x01\n      add\n      sload\n        /* \"contracts/Voting.sol\":1306:1349  winnerVote = candidates[winnerId].voteCount */\n      swap3\n      pop\n        /* \"contracts/Voting.sol\":985:1356  {... */\n      pop\n      pop\n        /* \"contracts/Voting.sol\":901:1356  function getWinner() public view returns (string memory winnerName, uint winnerVote){... */\n      swap1\n      swap2\n      jump\t// out\n        /* \"contracts/Voting.sol\":322:361  mapping (address => bool) public voters */\n    tag_34:\n      mstore(0x20, 0x03)\n      dup1\n      0x00\n      mstore\n      keccak256(0x00, 0x40)\n      0x00\n      swap2\n      pop\n      sload\n      swap1\n      0x0100\n      exp\n      swap1\n      div\n      0xff\n      and\n      dup2\n      jump\t// out\n        /* \"contracts/Voting.sol\":79:99  address public admin */\n    tag_38:\n      0x00\n      0x00\n      swap1\n      sload\n      swap1\n      0x0100\n      exp\n      swap1\n      div\n      0xffffffffffffffffffffffffffffffffffffffff\n      and\n      dup2\n      jump\t// out\n        /* \"#utility.yul\":7:82   */\n    tag_74:\n        /* \"#utility.yul\":40:46   */\n      0x00\n        /* \"#utility.yul\":73:75   */\n      0x40\n        /* \"#utility.yul\":67:76   */\n      mload\n        /* \"#utility.yul\":57:76   */\n      swap1\n      pop\n        /* \"#utility.yul\":7:82   */\n      swap1\n      jump\t// out\n        /* \"#utility.yul\":88:205   */\n    tag_75:\n        /* \"#utility.yul\":197:198   */\n      0x00\n        /* \"#utility.yul\":194:195   */\n      0x00\n        /* \"#utility.yul\":187:199   */\n      revert\n        /* \"#utility.yul\":211:328   */\n    tag_76:\n        /* \"#utility.yul\":320:321   */\n      0x00\n        /* \"#utility.yul\":317:318   */\n      0x00\n        /* \"#utility.yul\":310:322   */\n      revert\n        /* \"#utility.yul\":334:411   */\n    tag_77:\n        /* \"#utility.yul\":371:378   */\n      0x00\n        /* \"#utility.yul\":400:405   */\n      dup2\n        /* \"#utility.yul\":389:405   */\n      swap1\n      pop\n        /* \"#utility.yul\":334:411   */\n      swap2\n      swap1\n      pop\n      jump\t// out\n        /* \"#utility.yul\":417:539   */\n    tag_78:\n        /* \"#utility.yul\":490:514   */\n      tag_131\n        /* \"#utility.yul\":508:513   */\n      dup2\n        /* \"#utility.yul\":490:514   */\n      tag_77\n      jump\t// in\n    tag_131:\n        /* \"#utility.yul\":483:488   */\n      dup2\n        /* \"#utility.yul\":480:515   */\n      eq\n        /* \"#utility.yul\":470:533   */\n      tag_132\n      jumpi\n        /* \"#utility.yul\":529:530   */\n      0x00\n        /* \"#utility.yul\":526:527   */\n      0x00\n        /* \"#utility.yul\":519:531   */\n      revert\n        /* \"#utility.yul\":470:533   */\n    tag_132:\n        /* \"#utility.yul\":417:539   */\n      pop\n      jump\t// out\n        /* \"#utility.yul\":545:684   */\n    tag_79:\n        /* \"#utility.yul\":591:596   */\n      0x00\n        /* \"#utility.yul\":629:635   */\n      dup2\n        /* \"#utility.yul\":616:636   */\n      calldataload\n        /* \"#utility.yul\":607:636   */\n      swap1\n      pop\n        /* \"#utility.yul\":645:678   */\n      tag_134\n        /* \"#utility.yul\":672:677   */\n      dup2\n        /* \"#utility.yul\":645:678   */\n      tag_78\n      jump\t// in\n    tag_134:\n        /* \"#utility.yul\":545:684   */\n      swap3\n      swap2\n      pop\n      pop\n      jump\t// out\n        /* \"#utility.yul\":690:1019   */\n    tag_13:\n        /* \"#utility.yul\":749:755   */\n      0x00\n        /* \"#utility.yul\":798:800   */\n      0x20\n        /* \"#utility.yul\":786:795   */\n      dup3\n        /* \"#utility.yul\":777:784   */\n      dup5\n        /* \"#utility.yul\":773:796   */\n      sub\n        /* \"#utility.yul\":769:801   */\n      slt\n        /* \"#utility.yul\":766:885   */\n      iszero\n      tag_136\n      jumpi\n        /* \"#utility.yul\":804:883   */\n      tag_137\n      tag_75\n      jump\t// in\n    tag_137:\n        /* \"#utility.yul\":766:885   */\n    tag_136:\n        /* \"#utility.yul\":924:925   */\n      0x00\n        /* \"#utility.yul\":949:1002   */\n      tag_138\n        /* \"#utility.yul\":994:1001   */\n      dup5\n        /* \"#utility.yul\":985:991   */\n      dup3\n        /* \"#utility.yul\":974:983   */\n      dup6\n        /* \"#utility.yul\":970:992   */\n      add\n        /* \"#utility.yul\":949:1002   */\n      tag_79\n      jump\t// in\n    tag_138:\n        /* \"#utility.yul\":939:1002   */\n      swap2\n      pop\n        /* \"#utility.yul\":895:1012   */\n      pop\n        /* \"#utility.yul\":690:1019   */\n      swap3\n      swap2\n      pop\n      pop\n      jump\t// out\n        /* \"#utility.yul\":1025:1143   */\n    tag_80:\n        /* \"#utility.yul\":1112:1136   */\n      tag_140\n        /* \"#utility.yul\":1130:1135   */\n      dup2\n        /* \"#utility.yul\":1112:1136   */\n      tag_77\n      jump\t// in\n    tag_140:\n        /* \"#utility.yul\":1107:1110   */\n      dup3\n        /* \"#utility.yul\":1100:1137   */\n      mstore\n        /* \"#utility.yul\":1025:1143   */\n      pop\n      pop\n      jump\t// out\n        /* \"#utility.yul\":1149:1371   */\n    tag_18:\n        /* \"#utility.yul\":1242:1246   */\n      0x00\n        /* \"#utility.yul\":1280:1282   */\n      0x20\n        /* \"#utility.yul\":1269:1278   */\n      dup3\n        /* \"#utility.yul\":1265:1283   */\n      add\n        /* \"#utility.yul\":1257:1283   */\n      swap1\n      pop\n        /* \"#utility.yul\":1293:1364   */\n      tag_142\n        /* \"#utility.yul\":1361:1362   */\n      0x00\n        /* \"#utility.yul\":1350:1359   */\n      dup4\n        /* \"#utility.yul\":1346:1363   */\n      add\n        /* \"#utility.yul\":1337:1343   */\n      dup5\n        /* \"#utility.yul\":1293:1364   */\n      tag_80\n      jump\t// in\n    tag_142:\n        /* \"#utility.yul\":1149:1371   */\n      swap3\n      swap2\n      pop\n      pop\n      jump\t// out\n        /* \"#utility.yul\":1377:1476   */\n    tag_81:\n        /* \"#utility.yul\":1429:1435   */\n      0x00\n        /* \"#utility.yul\":1463:1468   */\n      dup2\n        /* \"#utility.yul\":1457:1469   */\n      mload\n        /* \"#utility.yul\":1447:1469   */\n      swap1\n      pop\n        /* \"#utility.yul\":1377:1476   */\n      swap2\n      swap1\n      pop\n      jump\t// out\n        /* \"#utility.yul\":1482:1651   */\n    tag_82:\n        /* \"#utility.yul\":1566:1577   */\n      0x00\n        /* \"#utility.yul\":1600:1606   */\n      dup3\n        /* \"#utility.yul\":1595:1598   */\n      dup3\n        /* \"#utility.yul\":1588:1607   */\n      mstore\n        /* \"#utility.yul\":1640:1644   */\n      0x20\n        /* \"#utility.yul\":1635:1638   */\n      dup3\n        /* \"#utility.yul\":1631:1645   */\n      add\n        /* \"#utility.yul\":1616:1645   */\n      swap1\n      pop\n        /* \"#utility.yul\":1482:1651   */\n      swap3\n      swap2\n      pop\n      pop\n      jump\t// out\n        /* \"#utility.yul\":1657:1796   */\n    tag_83:\n        /* \"#utility.yul\":1746:1752   */\n      dup3\n        /* \"#utility.yul\":1741:1744   */\n      dup2\n        /* \"#utility.yul\":1736:1739   */\n      dup4\n        /* \"#utility.yul\":1730:1753   */\n      mcopy\n        /* \"#utility.yul\":1787:1788   */\n      0x00\n        /* \"#utility.yul\":1778:1784   */\n      dup4\n        /* \"#utility.yul\":1773:1776   */\n      dup4\n        /* \"#utility.yul\":1769:1785   */\n      add\n        /* \"#utility.yul\":1762:1789   */\n      mstore\n        /* \"#utility.yul\":1657:1796   */\n      pop\n      pop\n      pop\n      jump\t// out\n        /* \"#utility.yul\":1802:1904   */\n    tag_84:\n        /* \"#utility.yul\":1843:1849   */\n      0x00\n        /* \"#utility.yul\":1894:1896   */\n      0x1f\n        /* \"#utility.yul\":1890:1897   */\n      not\n        /* \"#utility.yul\":1885:1887   */\n      0x1f\n        /* \"#utility.yul\":1878:1883   */\n      dup4\n        /* \"#utility.yul\":1874:1888   */\n      add\n        /* \"#utility.yul\":1870:1898   */\n      and\n        /* \"#utility.yul\":1860:1898   */\n      swap1\n      pop\n        /* \"#utility.yul\":1802:1904   */\n      swap2\n      swap1\n      pop\n      jump\t// out\n        /* \"#utility.yul\":1910:2287   */\n    tag_85:\n        /* \"#utility.yul\":1998:2001   */\n      0x00\n        /* \"#utility.yul\":2026:2065   */\n      tag_148\n        /* \"#utility.yul\":2059:2064   */\n      dup3\n        /* \"#utility.yul\":2026:2065   */\n      tag_81\n      jump\t// in\n    tag_148:\n        /* \"#utility.yul\":2081:2152   */\n      tag_149\n        /* \"#utility.yul\":2145:2151   */\n      dup2\n        /* \"#utility.yul\":2140:2143   */\n      dup6\n        /* \"#utility.yul\":2081:2152   */\n      tag_82\n      jump\t// in\n    tag_149:\n        /* \"#utility.yul\":2074:2152   */\n      swap4\n      pop\n        /* \"#utility.yul\":2161:2226   */\n      tag_150\n        /* \"#utility.yul\":2219:2225   */\n      dup2\n        /* \"#utility.yul\":2214:2217   */\n      dup6\n        /* \"#utility.yul\":2207:2211   */\n      0x20\n        /* \"#utility.yul\":2200:2205   */\n      dup7\n        /* \"#utility.yul\":2196:2212   */\n      add\n        /* \"#utility.yul\":2161:2226   */\n      tag_83\n      jump\t// in\n    tag_150:\n        /* \"#utility.yul\":2251:2280   */\n      tag_151\n        /* \"#utility.yul\":2273:2279   */\n      dup2\n        /* \"#utility.yul\":2251:2280   */\n      tag_84\n      jump\t// in\n    tag_151:\n        /* \"#utility.yul\":2246:2249   */\n      dup5\n        /* \"#utility.yul\":2242:2281   */\n      add\n        /* \"#utility.yul\":2235:2281   */\n      swap2\n      pop\n        /* \"#utility.yul\":2002:2287   */\n      pop\n        /* \"#utility.yul\":1910:2287   */\n      swap3\n      swap2\n      pop\n      pop\n      jump\t// out\n        /* \"#utility.yul\":2293:2716   */\n    tag_23:\n        /* \"#utility.yul\":2434:2438   */\n      0x00\n        /* \"#utility.yul\":2472:2474   */\n      0x40\n        /* \"#utility.yul\":2461:2470   */\n      dup3\n        /* \"#utility.yul\":2457:2475   */\n      add\n        /* \"#utility.yul\":2449:2475   */\n      swap1\n      pop\n        /* \"#utility.yul\":2521:2530   */\n      dup2\n        /* \"#utility.yul\":2515:2519   */\n      dup2\n        /* \"#utility.yul\":2511:2531   */\n      sub\n        /* \"#utility.yul\":2507:2508   */\n      0x00\n        /* \"#utility.yul\":2496:2505   */\n      dup4\n        /* \"#utility.yul\":2492:2509   */\n      add\n        /* \"#utility.yul\":2485:2532   */\n      mstore\n        /* \"#utility.yul\":2549:2627   */\n      tag_153\n        /* \"#utility.yul\":2622:2626   */\n      dup2\n        /* \"#utility.yul\":2613:2619   */\n      dup6\n        /* \"#utility.yul\":2549:2627   */\n      tag_85\n      jump\t// in\n    tag_153:\n        /* \"#utility.yul\":2541:2627   */\n      swap1\n      pop\n        /* \"#utility.yul\":2637:2709   */\n      tag_154\n        /* \"#utility.yul\":2705:2707   */\n      0x20\n        /* \"#utility.yul\":2694:2703   */\n      dup4\n        /* \"#utility.yul\":2690:2708   */\n      add\n        /* \"#utility.yul\":2681:2687   */\n      dup5\n        /* \"#utility.yul\":2637:2709   */\n      tag_80\n      jump\t// in\n    tag_154:\n        /* \"#utility.yul\":2293:2716   */\n      swap4\n      swap3\n      pop\n      pop\n      pop\n      jump\t// out\n        /* \"#utility.yul\":2722:2839   */\n    tag_86:\n        /* \"#utility.yul\":2831:2832   */\n      0x00\n        /* \"#utility.yul\":2828:2829   */\n      0x00\n        /* \"#utility.yul\":2821:2833   */\n      revert\n        /* \"#utility.yul\":2845:2962   */\n    tag_87:\n        /* \"#utility.yul\":2954:2955   */\n      0x00\n        /* \"#utility.yul\":2951:2952   */\n      0x00\n        /* \"#utility.yul\":2944:2956   */\n      revert\n        /* \"#utility.yul\":2968:3148   */\n    tag_88:\n        /* \"#utility.yul\":3016:3093   */\n      0x4e487b7100000000000000000000000000000000000000000000000000000000\n        /* \"#utility.yul\":3013:3014   */\n      0x00\n        /* \"#utility.yul\":3006:3094   */\n      mstore\n        /* \"#utility.yul\":3113:3117   */\n      0x41\n        /* \"#utility.yul\":3110:3111   */\n      0x04\n        /* \"#utility.yul\":3103:3118   */\n      mstore\n        /* \"#utility.yul\":3137:3141   */\n      0x24\n        /* \"#utility.yul\":3134:3135   */\n      0x00\n        /* \"#utility.yul\":3127:3142   */\n      revert\n        /* \"#utility.yul\":3154:3435   */\n    tag_89:\n        /* \"#utility.yul\":3237:3264   */\n      tag_159\n        /* \"#utility.yul\":3259:3263   */\n      dup3\n        /* \"#utility.yul\":3237:3264   */\n      tag_84\n      jump\t// in\n    tag_159:\n        /* \"#utility.yul\":3229:3235   */\n      dup2\n        /* \"#utility.yul\":3225:3265   */\n      add\n        /* \"#utility.yul\":3367:3373   */\n      dup2\n        /* \"#utility.yul\":3355:3365   */\n      dup2\n        /* \"#utility.yul\":3352:3374   */\n      lt\n        /* \"#utility.yul\":3331:3349   */\n      0xffffffffffffffff\n        /* \"#utility.yul\":3319:3329   */\n      dup3\n        /* \"#utility.yul\":3316:3350   */\n      gt\n        /* \"#utility.yul\":3313:3375   */\n      or\n        /* \"#utility.yul\":3310:3398   */\n      iszero\n      tag_160\n      jumpi\n        /* \"#utility.yul\":3378:3396   */\n      tag_161\n      tag_88\n      jump\t// in\n    tag_161:\n        /* \"#utility.yul\":3310:3398   */\n    tag_160:\n        /* \"#utility.yul\":3418:3428   */\n      dup1\n        /* \"#utility.yul\":3414:3416   */\n      0x40\n        /* \"#utility.yul\":3407:3429   */\n      mstore\n        /* \"#utility.yul\":3197:3435   */\n      pop\n        /* \"#utility.yul\":3154:3435   */\n      pop\n      pop\n      jump\t// out\n        /* \"#utility.yul\":3441:3570   */\n    tag_90:\n        /* \"#utility.yul\":3475:3481   */\n      0x00\n        /* \"#utility.yul\":3502:3522   */\n      tag_163\n      tag_74\n      jump\t// in\n    tag_163:\n        /* \"#utility.yul\":3492:3522   */\n      swap1\n      pop\n        /* \"#utility.yul\":3531:3564   */\n      tag_164\n        /* \"#utility.yul\":3559:3563   */\n      dup3\n        /* \"#utility.yul\":3551:3557   */\n      dup3\n        /* \"#utility.yul\":3531:3564   */\n      tag_89\n      jump\t// in\n    tag_164:\n        /* \"#utility.yul\":3441:3570   */\n      swap2\n      swap1\n      pop\n      jump\t// out\n        /* \"#utility.yul\":3576:3884   */\n    tag_91:\n        /* \"#utility.yul\":3638:3642   */\n      0x00\n        /* \"#utility.yul\":3728:3746   */\n      0xffffffffffffffff\n        /* \"#utility.yul\":3720:3726   */\n      dup3\n        /* \"#utility.yul\":3717:3747   */\n      gt\n        /* \"#utility.yul\":3714:3770   */\n      iszero\n      tag_166\n      jumpi\n        /* \"#utility.yul\":3750:3768   */\n      tag_167\n      tag_88\n      jump\t// in\n    tag_167:\n        /* \"#utility.yul\":3714:3770   */\n    tag_166:\n        /* \"#utility.yul\":3788:3817   */\n      tag_168\n        /* \"#utility.yul\":3810:3816   */\n      dup3\n        /* \"#utility.yul\":3788:3817   */\n      tag_84\n      jump\t// in\n    tag_168:\n        /* \"#utility.yul\":3780:3817   */\n      swap1\n      pop\n        /* \"#utility.yul\":3872:3876   */\n      0x20\n        /* \"#utility.yul\":3866:3870   */\n      dup2\n        /* \"#utility.yul\":3862:3877   */\n      add\n        /* \"#utility.yul\":3854:3877   */\n      swap1\n      pop\n        /* \"#utility.yul\":3576:3884   */\n      swap2\n      swap1\n      pop\n      jump\t// out\n        /* \"#utility.yul\":3890:4038   */\n    tag_92:\n        /* \"#utility.yul\":3988:3994   */\n      dup3\n        /* \"#utility.yul\":3983:3986   */\n      dup2\n        /* \"#utility.yul\":3978:3981   */\n      dup4\n        /* \"#utility.yul\":3965:3995   */\n      calldatacopy\n        /* \"#utility.yul\":4029:4030   */\n      0x00\n        /* \"#utility.yul\":4020:4026   */\n      dup4\n        /* \"#utility.yul\":4015:4018   */\n      dup4\n        /* \"#utility.yul\":4011:4027   */\n      add\n        /* \"#utility.yul\":4004:4031   */\n      mstore\n        /* \"#utility.yul\":3890:4038   */\n      pop\n      pop\n      pop\n      jump\t// out\n        /* \"#utility.yul\":4044:4469   */\n    tag_93:\n        /* \"#utility.yul\":4122:4127   */\n      0x00\n        /* \"#utility.yul\":4147:4213   */\n      tag_171\n        /* \"#utility.yul\":4163:4212   */\n      tag_172\n        /* \"#utility.yul\":4205:4211   */\n      dup5\n        /* \"#utility.yul\":4163:4212   */\n      tag_91\n      jump\t// in\n    tag_172:\n        /* \"#utility.yul\":4147:4213   */\n      tag_90\n      jump\t// in\n    tag_171:\n        /* \"#utility.yul\":4138:4213   */\n      swap1\n      pop\n        /* \"#utility.yul\":4236:4242   */\n      dup3\n        /* \"#utility.yul\":4229:4234   */\n      dup2\n        /* \"#utility.yul\":4222:4243   */\n      mstore\n        /* \"#utility.yul\":4274:4278   */\n      0x20\n        /* \"#utility.yul\":4267:4272   */\n      dup2\n        /* \"#utility.yul\":4263:4279   */\n      add\n        /* \"#utility.yul\":4312:4315   */\n      dup5\n        /* \"#utility.yul\":4303:4309   */\n      dup5\n        /* \"#utility.yul\":4298:4301   */\n      dup5\n        /* \"#utility.yul\":4294:4310   */\n      add\n        /* \"#utility.yul\":4291:4316   */\n      gt\n        /* \"#utility.yul\":4288:4400   */\n      iszero\n      tag_173\n      jumpi\n        /* \"#utility.yul\":4319:4398   */\n      tag_174\n      tag_87\n      jump\t// in\n    tag_174:\n        /* \"#utility.yul\":4288:4400   */\n    tag_173:\n        /* \"#utility.yul\":4409:4463   */\n      tag_175\n        /* \"#utility.yul\":4456:4462   */\n      dup5\n        /* \"#utility.yul\":4451:4454   */\n      dup3\n        /* \"#utility.yul\":4446:4449   */\n      dup6\n        /* \"#utility.yul\":4409:4463   */\n      tag_92\n      jump\t// in\n    tag_175:\n        /* \"#utility.yul\":4128:4469   */\n      pop\n        /* \"#utility.yul\":4044:4469   */\n      swap4\n      swap3\n      pop\n      pop\n      pop\n      jump\t// out\n        /* \"#utility.yul\":4489:4829   */\n    tag_94:\n        /* \"#utility.yul\":4545:4550   */\n      0x00\n        /* \"#utility.yul\":4594:4597   */\n      dup3\n        /* \"#utility.yul\":4587:4591   */\n      0x1f\n        /* \"#utility.yul\":4579:4585   */\n      dup4\n        /* \"#utility.yul\":4575:4592   */\n      add\n        /* \"#utility.yul\":4571:4598   */\n      slt\n        /* \"#utility.yul\":4561:4683   */\n      tag_177\n      jumpi\n        /* \"#utility.yul\":4602:4681   */\n      tag_178\n      tag_86\n      jump\t// in\n    tag_178:\n        /* \"#utility.yul\":4561:4683   */\n    tag_177:\n        /* \"#utility.yul\":4719:4725   */\n      dup2\n        /* \"#utility.yul\":4706:4726   */\n      calldataload\n        /* \"#utility.yul\":4744:4823   */\n      tag_179\n        /* \"#utility.yul\":4819:4822   */\n      dup5\n        /* \"#utility.yul\":4811:4817   */\n      dup3\n        /* \"#utility.yul\":4804:4808   */\n      0x20\n        /* \"#utility.yul\":4796:4802   */\n      dup7\n        /* \"#utility.yul\":4792:4809   */\n      add\n        /* \"#utility.yul\":4744:4823   */\n      tag_93\n      jump\t// in\n    tag_179:\n        /* \"#utility.yul\":4735:4823   */\n      swap2\n      pop\n        /* \"#utility.yul\":4551:4829   */\n      pop\n        /* \"#utility.yul\":4489:4829   */\n      swap3\n      swap2\n      pop\n      pop\n      jump\t// out\n        /* \"#utility.yul\":4835:5344   */\n    tag_26:\n        /* \"#utility.yul\":4904:4910   */\n      0x00\n        /* \"#utility.yul\":4953:4955   */\n      0x20\n        /* \"#utility.yul\":4941:4950   */\n      dup3\n        /* \"#utility.yul\":4932:4939   */\n      dup5\n        /* \"#utility.yul\":4928:4951   */\n      sub\n        /* \"#utility.yul\":4924:4956   */\n      slt\n        /* \"#utility.yul\":4921:5040   */\n      iszero\n      tag_181\n      jumpi\n        /* \"#utility.yul\":4959:5038   */\n      tag_182\n      tag_75\n      jump\t// in\n    tag_182:\n        /* \"#utility.yul\":4921:5040   */\n    tag_181:\n        /* \"#utility.yul\":5107:5108   */\n      0x00\n        /* \"#utility.yul\":5096:5105   */\n      dup3\n        /* \"#utility.yul\":5092:5109   */\n      add\n        /* \"#utility.yul\":5079:5110   */\n      calldataload\n        /* \"#utility.yul\":5137:5155   */\n      0xffffffffffffffff\n        /* \"#utility.yul\":5129:5135   */\n      dup2\n        /* \"#utility.yul\":5126:5156   */\n      gt\n        /* \"#utility.yul\":5123:5240   */\n      iszero\n      tag_183\n      jumpi\n        /* \"#utility.yul\":5159:5238   */\n      tag_184\n      tag_76\n      jump\t// in\n    tag_184:\n        /* \"#utility.yul\":5123:5240   */\n    tag_183:\n        /* \"#utility.yul\":5264:5327   */\n      tag_185\n        /* \"#utility.yul\":5319:5326   */\n      dup5\n        /* \"#utility.yul\":5310:5316   */\n      dup3\n        /* \"#utility.yul\":5299:5308   */\n      dup6\n        /* \"#utility.yul\":5295:5317   */\n      add\n        /* \"#utility.yul\":5264:5327   */\n      tag_94\n      jump\t// in\n    tag_185:\n        /* \"#utility.yul\":5254:5327   */\n      swap2\n      pop\n        /* \"#utility.yul\":5050:5337   */\n      pop\n        /* \"#utility.yul\":4835:5344   */\n      swap3\n      swap2\n      pop\n      pop\n      jump\t// out\n        /* \"#utility.yul\":5350:5476   */\n    tag_95:\n        /* \"#utility.yul\":5387:5394   */\n      0x00\n        /* \"#utility.yul\":5427:5469   */\n      0xffffffffffffffffffffffffffffffffffffffff\n        /* \"#utility.yul\":5420:5425   */\n      dup3\n        /* \"#utility.yul\":5416:5470   */\n      and\n        /* \"#utility.yul\":5405:5470   */\n      swap1\n      pop\n        /* \"#utility.yul\":5350:5476   */\n      swap2\n      swap1\n      pop\n      jump\t// out\n        /* \"#utility.yul\":5482:5578   */\n    tag_96:\n        /* \"#utility.yul\":5519:5526   */\n      0x00\n        /* \"#utility.yul\":5548:5572   */\n      tag_188\n        /* \"#utility.yul\":5566:5571   */\n      dup3\n        /* \"#utility.yul\":5548:5572   */\n      tag_95\n      jump\t// in\n    tag_188:\n        /* \"#utility.yul\":5537:5572   */\n      swap1\n      pop\n        /* \"#utility.yul\":5482:5578   */\n      swap2\n      swap1\n      pop\n      jump\t// out\n        /* \"#utility.yul\":5584:5706   */\n    tag_97:\n        /* \"#utility.yul\":5657:5681   */\n      tag_190\n        /* \"#utility.yul\":5675:5680   */\n      dup2\n        /* \"#utility.yul\":5657:5681   */\n      tag_96\n      jump\t// in\n    tag_190:\n        /* \"#utility.yul\":5650:5655   */\n      dup2\n        /* \"#utility.yul\":5647:5682   */\n      eq\n        /* \"#utility.yul\":5637:5700   */\n      tag_191\n      jumpi\n        /* \"#utility.yul\":5696:5697   */\n      0x00\n        /* \"#utility.yul\":5693:5694   */\n      0x00\n        /* \"#utility.yul\":5686:5698   */\n      revert\n        /* \"#utility.yul\":5637:5700   */\n    tag_191:\n        /* \"#utility.yul\":5584:5706   */\n      pop\n      jump\t// out\n        /* \"#utility.yul\":5712:5851   */\n    tag_98:\n        /* \"#utility.yul\":5758:5763   */\n      0x00\n        /* \"#utility.yul\":5796:5802   */\n      dup2\n        /* \"#utility.yul\":5783:5803   */\n      calldataload\n        /* \"#utility.yul\":5774:5803   */\n      swap1\n      pop\n        /* \"#utility.yul\":5812:5845   */\n      tag_193\n        /* \"#utility.yul\":5839:5844   */\n      dup2\n        /* \"#utility.yul\":5812:5845   */\n      tag_97\n      jump\t// in\n    tag_193:\n        /* \"#utility.yul\":5712:5851   */\n      swap3\n      swap2\n      pop\n      pop\n      jump\t// out\n        /* \"#utility.yul\":5857:6186   */\n    tag_33:\n        /* \"#utility.yul\":5916:5922   */\n      0x00\n        /* \"#utility.yul\":5965:5967   */\n      0x20\n        /* \"#utility.yul\":5953:5962   */\n      dup3\n        /* \"#utility.yul\":5944:5951   */\n      dup5\n        /* \"#utility.yul\":5940:5963   */\n      sub\n        /* \"#utility.yul\":5936:5968   */\n      slt\n        /* \"#utility.yul\":5933:6052   */\n      iszero\n      tag_195\n      jumpi\n        /* \"#utility.yul\":5971:6050   */\n      tag_196\n      tag_75\n      jump\t// in\n    tag_196:\n        /* \"#utility.yul\":5933:6052   */\n    tag_195:\n        /* \"#utility.yul\":6091:6092   */\n      0x00\n        /* \"#utility.yul\":6116:6169   */\n      tag_197\n        /* \"#utility.yul\":6161:6168   */\n      dup5\n        /* \"#utility.yul\":6152:6158   */\n      dup3\n        /* \"#utility.yul\":6141:6150   */\n      dup6\n        /* \"#utility.yul\":6137:6159   */\n      add\n        /* \"#utility.yul\":6116:6169   */\n      tag_98\n      jump\t// in\n    tag_197:\n        /* \"#utility.yul\":6106:6169   */\n      swap2\n      pop\n        /* \"#utility.yul\":6062:6179   */\n      pop\n        /* \"#utility.yul\":5857:6186   */\n      swap3\n      swap2\n      pop\n      pop\n      jump\t// out\n        /* \"#utility.yul\":6192:6282   */\n    tag_99:\n        /* \"#utility.yul\":6226:6233   */\n      0x00\n        /* \"#utility.yul\":6269:6274   */\n      dup2\n        /* \"#utility.yul\":6262:6275   */\n      iszero\n        /* \"#utility.yul\":6255:6276   */\n      iszero\n        /* \"#utility.yul\":6244:6276   */\n      swap1\n      pop\n        /* \"#utility.yul\":6192:6282   */\n      swap2\n      swap1\n      pop\n      jump\t// out\n        /* \"#utility.yul\":6288:6397   */\n    tag_100:\n        /* \"#utility.yul\":6369:6390   */\n      tag_200\n        /* \"#utility.yul\":6384:6389   */\n      dup2\n        /* \"#utility.yul\":6369:6390   */\n      tag_99\n      jump\t// in\n    tag_200:\n        /* \"#utility.yul\":6364:6367   */\n      dup3\n        /* \"#utility.yul\":6357:6391   */\n      mstore\n        /* \"#utility.yul\":6288:6397   */\n      pop\n      pop\n      jump\t// out\n        /* \"#utility.yul\":6403:6613   */\n    tag_36:\n        /* \"#utility.yul\":6490:6494   */\n      0x00\n        /* \"#utility.yul\":6528:6530   */\n      0x20\n        /* \"#utility.yul\":6517:6526   */\n      dup3\n        /* \"#utility.yul\":6513:6531   */\n      add\n        /* \"#utility.yul\":6505:6531   */\n      swap1\n      pop\n        /* \"#utility.yul\":6541:6606   */\n      tag_202\n        /* \"#utility.yul\":6603:6604   */\n      0x00\n        /* \"#utility.yul\":6592:6601   */\n      dup4\n        /* \"#utility.yul\":6588:6605   */\n      add\n        /* \"#utility.yul\":6579:6585   */\n      dup5\n        /* \"#utility.yul\":6541:6606   */\n      tag_100\n      jump\t// in\n    tag_202:\n        /* \"#utility.yul\":6403:6613   */\n      swap3\n      swap2\n      pop\n      pop\n      jump\t// out\n        /* \"#utility.yul\":6619:6737   */\n    tag_101:\n        /* \"#utility.yul\":6706:6730   */\n      tag_204\n        /* \"#utility.yul\":6724:6729   */\n      dup2\n        /* \"#utility.yul\":6706:6730   */\n      tag_96\n      jump\t// in\n    tag_204:\n        /* \"#utility.yul\":6701:6704   */\n      dup3\n        /* \"#utility.yul\":6694:6731   */\n      mstore\n        /* \"#utility.yul\":6619:6737   */\n      pop\n      pop\n      jump\t// out\n        /* \"#utility.yul\":6743:6965   */\n    tag_40:\n        /* \"#utility.yul\":6836:6840   */\n      0x00\n        /* \"#utility.yul\":6874:6876   */\n      0x20\n        /* \"#utility.yul\":6863:6872   */\n      dup3\n        /* \"#utility.yul\":6859:6877   */\n      add\n        /* \"#utility.yul\":6851:6877   */\n      swap1\n      pop\n        /* \"#utility.yul\":6887:6958   */\n      tag_206\n        /* \"#utility.yul\":6955:6956   */\n      0x00\n        /* \"#utility.yul\":6944:6953   */\n      dup4\n        /* \"#utility.yul\":6940:6957   */\n      add\n        /* \"#utility.yul\":6931:6937   */\n      dup5\n        /* \"#utility.yul\":6887:6958   */\n      tag_101\n      jump\t// in\n    tag_206:\n        /* \"#utility.yul\":6743:6965   */\n      swap3\n      swap2\n      pop\n      pop\n      jump\t// out\n        /* \"#utility.yul\":6971:7134   */\n    tag_102:\n        /* \"#utility.yul\":7111:7126   */\n      0x416c726561647920766f74656400000000000000000000000000000000000000\n        /* \"#utility.yul\":7107:7108   */\n      0x00\n        /* \"#utility.yul\":7099:7105   */\n      dup3\n        /* \"#utility.yul\":7095:7109   */\n      add\n        /* \"#utility.yul\":7088:7127   */\n      mstore\n        /* \"#utility.yul\":6971:7134   */\n      pop\n      jump\t// out\n        /* \"#utility.yul\":7140:7506   */\n    tag_103:\n        /* \"#utility.yul\":7282:7285   */\n      0x00\n        /* \"#utility.yul\":7303:7370   */\n      tag_209\n        /* \"#utility.yul\":7367:7369   */\n      0x0d\n        /* \"#utility.yul\":7362:7365   */\n      dup4\n        /* \"#utility.yul\":7303:7370   */\n      tag_82\n      jump\t// in\n    tag_209:\n        /* \"#utility.yul\":7296:7370   */\n      swap2\n      pop\n        /* \"#utility.yul\":7379:7472   */\n      tag_210\n        /* \"#utility.yul\":7468:7471   */\n      dup3\n        /* \"#utility.yul\":7379:7472   */\n      tag_102\n      jump\t// in\n    tag_210:\n        /* \"#utility.yul\":7497:7499   */\n      0x20\n        /* \"#utility.yul\":7492:7495   */\n      dup3\n        /* \"#utility.yul\":7488:7500   */\n      add\n        /* \"#utility.yul\":7481:7500   */\n      swap1\n      pop\n        /* \"#utility.yul\":7140:7506   */\n      swap2\n      swap1\n      pop\n      jump\t// out\n        /* \"#utility.yul\":7512:7931   */\n    tag_44:\n        /* \"#utility.yul\":7678:7682   */\n      0x00\n        /* \"#utility.yul\":7716:7718   */\n      0x20\n        /* \"#utility.yul\":7705:7714   */\n      dup3\n        /* \"#utility.yul\":7701:7719   */\n      add\n        /* \"#utility.yul\":7693:7719   */\n      swap1\n      pop\n        /* \"#utility.yul\":7765:7774   */\n      dup2\n        /* \"#utility.yul\":7759:7763   */\n      dup2\n        /* \"#utility.yul\":7755:7775   */\n      sub\n        /* \"#utility.yul\":7751:7752   */\n      0x00\n        /* \"#utility.yul\":7740:7749   */\n      dup4\n        /* \"#utility.yul\":7736:7753   */\n      add\n        /* \"#utility.yul\":7729:7776   */\n      mstore\n        /* \"#utility.yul\":7793:7924   */\n      tag_212\n        /* \"#utility.yul\":7919:7923   */\n      dup2\n        /* \"#utility.yul\":7793:7924   */\n      tag_103\n      jump\t// in\n    tag_212:\n        /* \"#utility.yul\":7785:7924   */\n      swap1\n      pop\n        /* \"#utility.yul\":7512:7931   */\n      swap2\n      swap1\n      pop\n      jump\t// out\n        /* \"#utility.yul\":7937:8111   */\n    tag_104:\n        /* \"#utility.yul\":8077:8103   */\n      0x43616e64696461746520646f6573206e6f742065786973740000000000000000\n        /* \"#utility.yul\":8073:8074   */\n      0x00\n        /* \"#utility.yul\":8065:8071   */\n      dup3\n        /* \"#utility.yul\":8061:8075   */\n      add\n        /* \"#utility.yul\":8054:8104   */\n      mstore\n        /* \"#utility.yul\":7937:8111   */\n      pop\n      jump\t// out\n        /* \"#utility.yul\":8117:8483   */\n    tag_105:\n        /* \"#utility.yul\":8259:8262   */\n      0x00\n        /* \"#utility.yul\":8280:8347   */\n      tag_215\n        /* \"#utility.yul\":8344:8346   */\n      0x18\n        /* \"#utility.yul\":8339:8342   */\n      dup4\n        /* \"#utility.yul\":8280:8347   */\n      tag_82\n      jump\t// in\n    tag_215:\n        /* \"#utility.yul\":8273:8347   */\n      swap2\n      pop\n        /* \"#utility.yul\":8356:8449   */\n      tag_216\n        /* \"#utility.yul\":8445:8448   */\n      dup3\n        /* \"#utility.yul\":8356:8449   */\n      tag_104\n      jump\t// in\n    tag_216:\n        /* \"#utility.yul\":8474:8476   */\n      0x20\n        /* \"#utility.yul\":8469:8472   */\n      dup3\n        /* \"#utility.yul\":8465:8477   */\n      add\n        /* \"#utility.yul\":8458:8477   */\n      swap1\n      pop\n        /* \"#utility.yul\":8117:8483   */\n      swap2\n      swap1\n      pop\n      jump\t// out\n        /* \"#utility.yul\":8489:8908   */\n    tag_47:\n        /* \"#utility.yul\":8655:8659   */\n      0x00\n        /* \"#utility.yul\":8693:8695   */\n      0x20\n        /* \"#utility.yul\":8682:8691   */\n      dup3\n        /* \"#utility.yul\":8678:8696   */\n      add\n        /* \"#utility.yul\":8670:8696   */\n      swap1\n      pop\n        /* \"#utility.yul\":8742:8751   */\n      dup2\n        /* \"#utility.yul\":8736:8740   */\n      dup2\n        /* \"#utility.yul\":8732:8752   */\n      sub\n        /* \"#utility.yul\":8728:8729   */\n      0x00\n        /* \"#utility.yul\":8717:8726   */\n      dup4\n        /* \"#utility.yul\":8713:8730   */\n      add\n        /* \"#utility.yul\":8706:8753   */\n      mstore\n        /* \"#utility.yul\":8770:8901   */\n      tag_218\n        /* \"#utility.yul\":8896:8900   */\n      dup2\n        /* \"#utility.yul\":8770:8901   */\n      tag_105\n      jump\t// in\n    tag_218:\n        /* \"#utility.yul\":8762:8901   */\n      swap1\n      pop\n        /* \"#utility.yul\":8489:8908   */\n      swap2\n      swap1\n      pop\n      jump\t// out\n        /* \"#utility.yul\":8914:9094   */\n    tag_106:\n        /* \"#utility.yul\":8962:9039   */\n      0x4e487b7100000000000000000000000000000000000000000000000000000000\n        /* \"#utility.yul\":8959:8960   */\n      0x00\n        /* \"#utility.yul\":8952:9040   */\n      mstore\n        /* \"#utility.yul\":9059:9063   */\n      0x11\n        /* \"#utility.yul\":9056:9057   */\n      0x04\n        /* \"#utility.yul\":9049:9064   */\n      mstore\n        /* \"#utility.yul\":9083:9087   */\n      0x24\n        /* \"#utility.yul\":9080:9081   */\n      0x00\n        /* \"#utility.yul\":9073:9088   */\n      revert\n        /* \"#utility.yul\":9100:9333   */\n    tag_49:\n        /* \"#utility.yul\":9139:9142   */\n      0x00\n        /* \"#utility.yul\":9162:9186   */\n      tag_221\n        /* \"#utility.yul\":9180:9185   */\n      dup3\n        /* \"#utility.yul\":9162:9186   */\n      tag_77\n      jump\t// in\n    tag_221:\n        /* \"#utility.yul\":9153:9186   */\n      swap2\n      pop\n        /* \"#utility.yul\":9208:9274   */\n      0xffffffffffffffffffffffffffffffffffffffffffffffffffffffffffffffff\n        /* \"#utility.yul\":9201:9206   */\n      dup3\n        /* \"#utility.yul\":9198:9275   */\n      sub\n        /* \"#utility.yul\":9195:9298   */\n      tag_222\n      jumpi\n        /* \"#utility.yul\":9278:9296   */\n      tag_223\n      tag_106\n      jump\t// in\n    tag_223:\n        /* \"#utility.yul\":9195:9298   */\n    tag_222:\n        /* \"#utility.yul\":9325:9326   */\n      0x01\n        /* \"#utility.yul\":9318:9323   */\n      dup3\n        /* \"#utility.yul\":9314:9327   */\n      add\n        /* \"#utility.yul\":9307:9327   */\n      swap1\n      pop\n        /* \"#utility.yul\":9100:9333   */\n      swap2\n      swap1\n      pop\n      jump\t// out\n        /* \"#utility.yul\":9339:9519   */\n    tag_107:\n        /* \"#utility.yul\":9387:9464   */\n      0x4e487b7100000000000000000000000000000000000000000000000000000000\n        /* \"#utility.yul\":9384:9385   */\n      0x00\n        /* \"#utility.yul\":9377:9465   */\n      mstore\n        /* \"#utility.yul\":9484:9488   */\n      0x22\n        /* \"#utility.yul\":9481:9482   */\n      0x04\n        /* \"#utility.yul\":9474:9489   */\n      mstore\n        /* \"#utility.yul\":9508:9512   */\n      0x24\n        /* \"#utility.yul\":9505:9506   */\n      0x00\n        /* \"#utility.yul\":9498:9513   */\n      revert\n        /* \"#utility.yul\":9525:9845   */\n    tag_51:\n        /* \"#utility.yul\":9569:9575   */\n      0x00\n        /* \"#utility.yul\":9606:9607   */\n      0x02\n        /* \"#utility.yul\":9600:9604   */\n      dup3\n        /* \"#utility.yul\":9596:9608   */\n      div\n        /* \"#utility.yul\":9586:9608   */\n      swap1\n      pop\n        /* \"#utility.yul\":9653:9654   */\n      0x01\n        /* \"#utility.yul\":9647:9651   */\n      dup3\n        /* \"#utility.yul\":9643:9655   */\n      and\n        /* \"#utility.yul\":9674:9692   */\n      dup1\n        /* \"#utility.yul\":9664:9745   */\n      tag_226\n      jumpi\n        /* \"#utility.yul\":9730:9734   */\n      0x7f\n        /* \"#utility.yul\":9722:9728   */\n      dup3\n        /* \"#utility.yul\":9718:9735   */\n      and\n        /* \"#utility.yul\":9708:9735   */\n      swap2\n      pop\n        /* \"#utility.yul\":9664:9745   */\n    tag_226:\n        /* \"#utility.yul\":9792:9794   */\n      0x20\n        /* \"#utility.yul\":9784:9790   */\n      dup3\n        /* \"#utility.yul\":9781:9795   */\n      lt\n        /* \"#utility.yul\":9761:9779   */\n      dup2\n        /* \"#utility.yul\":9758:9796   */\n      sub\n        /* \"#utility.yul\":9755:9839   */\n      tag_227\n      jumpi\n        /* \"#utility.yul\":9811:9829   */\n      tag_228\n      tag_107\n      jump\t// in\n    tag_228:\n        /* \"#utility.yul\":9755:9839   */\n    tag_227:\n        /* \"#utility.yul\":9576:9845   */\n      pop\n        /* \"#utility.yul\":9525:9845   */\n      swap2\n      swap1\n      pop\n      jump\t// out\n        /* \"#utility.yul\":9851:10023   */\n    tag_108:\n        /* \"#utility.yul\":9991:10015   */\n      0x4f6e6c792061646d696e2063616e20646f207468697300000000000000000000\n        /* \"#utility.yul\":9987:9988   */\n      0x00\n        /* \"#utility.yul\":9979:9985   */\n      dup3\n        /* \"#utility.yul\":9975:9989   */\n      add\n        /* \"#utility.yul\":9968:10016   */\n      mstore\n        /* \"#utility.yul\":9851:10023   */\n      pop\n      jump\t// out\n        /* \"#utility.yul\":10029:10395   */\n    tag_109:\n        /* \"#utility.yul\":10171:10174   */\n      0x00\n        /* \"#utility.yul\":10192:10259   */\n      tag_231\n        /* \"#utility.yul\":10256:10258   */\n      0x16\n        /* \"#utility.yul\":10251:10254   */\n      dup4\n        /* \"#utility.yul\":10192:10259   */\n      tag_82\n      jump\t// in\n    tag_231:\n        /* \"#utility.yul\":10185:10259   */\n      swap2\n      pop\n        /* \"#utility.yul\":10268:10361   */\n      tag_232\n        /* \"#utility.yul\":10357:10360   */\n      dup3\n        /* \"#utility.yul\":10268:10361   */\n      tag_108\n      jump\t// in\n    tag_232:\n        /* \"#utility.yul\":10386:10388   */\n      0x20\n        /* \"#utility.yul\":10381:10384   */\n      dup3\n        /* \"#utility.yul\":10377:10389   */\n      add\n        /* \"#utility.yul\":10370:10389   */\n      swap1\n      pop\n        /* \"#utility.yul\":10029:10395   */\n      swap2\n      swap1\n      pop\n      jump\t// out\n        /* \"#utility.yul\":10401:10820   */\n    tag_59:\n        /* \"#utility.yul\":10567:10571   */\n      0x00\n        /* \"#utility.yul\":10605:10607   */\n      0x20\n        /* \"#utility.yul\":10594:10603   */\n      dup3\n        /* \"#utility.yul\":10590:10608   */\n      add\n        /* \"#utility.yul\":10582:10608   */\n      swap1\n      pop\n        /* \"#utility.yul\":10654:10663   */\n      dup2\n        /* \"#utility.yul\":10648:10652   */\n      dup2\n        /* \"#utility.yul\":10644:10664   */\n      sub\n        /* \"#utility.yul\":10640:10641   */\n      0x00\n        /* \"#utility.yul\":10629:10638   */\n      dup4\n        /* \"#utility.yul\":10625:10642   */\n      add\n        /* \"#utility.yul\":10618:10665   */\n      mstore\n        /* \"#utility.yul\":10682:10813   */\n      tag_234\n        /* \"#utility.yul\":10808:10812   */\n      dup2\n        /* \"#utility.yul\":10682:10813   */\n      tag_109\n      jump\t// in\n    tag_234:\n        /* \"#utility.yul\":10674:10813   */\n      swap1\n      pop\n        /* \"#utility.yul\":10401:10820   */\n      swap2\n      swap1\n      pop\n      jump\t// out\n        /* \"#utility.yul\":10826:10967   */\n    tag_110:\n        /* \"#utility.yul\":10875:10879   */\n      0x00\n        /* \"#utility.yul\":10898:10901   */\n      dup2\n        /* \"#utility.yul\":10890:10901   */\n      swap1\n      pop\n        /* \"#utility.yul\":10921:10924   */\n      dup2\n        /* \"#utility.yul\":10918:10919   */\n      0x00\n        /* \"#utility.yul\":10911:10925   */\n      mstore\n        /* \"#utility.yul\":10955:10959   */\n      0x20\n        /* \"#utility.yul\":10952:10953   */\n      0x00\n        /* \"#utility.yul\":10942:10960   */\n      keccak256\n        /* \"#utility.yul\":10934:10960   */\n      swap1\n      pop\n        /* \"#utility.yul\":10826:10967   */\n      swap2\n      swap1\n      pop\n      jump\t// out\n        /* \"#utility.yul\":10973:11066   */\n    tag_111:\n        /* \"#utility.yul\":11010:11016   */\n      0x00\n        /* \"#utility.yul\":11057:11059   */\n      0x20\n        /* \"#utility.yul\":11052:11054   */\n      0x1f\n        /* \"#utility.yul\":11045:11050   */\n      dup4\n        /* \"#utility.yul\":11041:11055   */\n      add\n        /* \"#utility.yul\":11037:11060   */\n      div\n        /* \"#utility.yul\":11027:11060   */\n      swap1\n      pop\n        /* \"#utility.yul\":10973:11066   */\n      swap2\n      swap1\n      pop\n      jump\t// out\n        /* \"#utility.yul\":11072:11179   */\n    tag_112:\n        /* \"#utility.yul\":11116:11124   */\n      0x00\n        /* \"#utility.yul\":11166:11171   */\n      dup3\n        /* \"#utility.yul\":11160:11164   */\n      dup3\n        /* \"#utility.yul\":11156:11172   */\n      shl\n        /* \"#utility.yul\":11135:11172   */\n      swap1\n      pop\n        /* \"#utility.yul\":11072:11179   */\n      swap3\n      swap2\n      pop\n      pop\n      jump\t// out\n        /* \"#utility.yul\":11185:11578   */\n    tag_113:\n        /* \"#utility.yul\":11254:11260   */\n      0x00\n        /* \"#utility.yul\":11304:11305   */\n      0x08\n        /* \"#utility.yul\":11292:11302   */\n      dup4\n        /* \"#utility.yul\":11288:11306   */\n      mul\n        /* \"#utility.yul\":11327:11424   */\n      tag_239\n        /* \"#utility.yul\":11357:11423   */\n      0xffffffffffffffffffffffffffffffffffffffffffffffffffffffffffffffff\n        /* \"#utility.yul\":11346:11355   */\n      dup3\n        /* \"#utility.yul\":11327:11424   */\n      tag_112\n      jump\t// in\n    tag_239:\n        /* \"#utility.yul\":11445:11484   */\n      tag_240\n        /* \"#utility.yul\":11475:11483   */\n      dup7\n        /* \"#utility.yul\":11464:11473   */\n      dup4\n        /* \"#utility.yul\":11445:11484   */\n      tag_112\n      jump\t// in\n    tag_240:\n        /* \"#utility.yul\":11433:11484   */\n      swap6\n      pop\n        /* \"#utility.yul\":11517:11521   */\n      dup1\n        /* \"#utility.yul\":11513:11522   */\n      not\n        /* \"#utility.yul\":11506:11511   */\n      dup5\n        /* \"#utility.yul\":11502:11523   */\n      and\n        /* \"#utility.yul\":11493:11523   */\n      swap4\n      pop\n        /* \"#utility.yul\":11566:11570   */\n      dup1\n        /* \"#utility.yul\":11556:11564   */\n      dup7\n        /* \"#utility.yul\":11552:11571   */\n      and\n        /* \"#utility.yul\":11545:11550   */\n      dup5\n        /* \"#utility.yul\":11542:11572   */\n      or\n        /* \"#utility.yul\":11532:11572   */\n      swap3\n      pop\n        /* \"#utility.yul\":11261:11578   */\n      pop\n      pop\n        /* \"#utility.yul\":11185:11578   */\n      swap4\n      swap3\n      pop\n      pop\n      pop\n      jump\t// out\n        /* \"#utility.yul\":11584:11644   */\n    tag_114:\n        /* \"#utility.yul\":11612:11615   */\n      0x00\n        /* \"#utility.yul\":11633:11638   */\n      dup2\n        /* \"#utility.yul\":11626:11638   */\n      swap1\n      pop\n        /* \"#utility.yul\":11584:11644   */\n      swap2\n      swap1\n      pop\n      jump\t// out\n        /* \"#utility.yul\":11650:11792   */\n    tag_115:\n        /* \"#utility.yul\":11700:11709   */\n      0x00\n        /* \"#utility.yul\":11733:11786   */\n      tag_243\n        /* \"#utility.yul\":11751:11785   */\n      tag_244\n        /* \"#utility.yul\":11760:11784   */\n      tag_245\n        /* \"#utility.yul\":11778:11783   */\n      dup5\n        /* \"#utility.yul\":11760:11784   */\n      tag_77\n      jump\t// in\n    tag_245:\n        /* \"#utility.yul\":11751:11785   */\n      tag_114\n      jump\t// in\n    tag_244:\n        /* \"#utility.yul\":11733:11786   */\n      tag_77\n      jump\t// in\n    tag_243:\n        /* \"#utility.yul\":11720:11786   */\n      swap1\n      pop\n        /* \"#utility.yul\":11650:11792   */\n      swap2\n      swap1\n      pop\n      jump\t// out\n        /* \"#utility.yul\":11798:11873   */\n    tag_116:\n        /* \"#utility.yul\":11841:11844   */\n      0x00\n        /* \"#utility.yul\":11862:11867   */\n      dup2\n        /* \"#utility.yul\":11855:11867   */\n      swap1\n      pop\n        /* \"#utility.yul\":11798:11873   */\n      swap2\n      swap1\n      pop\n      jump\t// out\n        /* \"#utility.yul\":11879:12148   */\n    tag_117:\n        /* \"#utility.yul\":11989:12028   */\n      tag_248\n        /* \"#utility.yul\":12020:12027   */\n      dup4\n        /* \"#utility.yul\":11989:12028   */\n      tag_115\n      jump\t// in\n    tag_248:\n        /* \"#utility.yul\":12050:12141   */\n      tag_249\n        /* \"#utility.yul\":12099:12140   */\n      tag_250\n        /* \"#utility.yul\":12123:12139   */\n      dup3\n        /* \"#utility.yul\":12099:12140   */\n      tag_116\n      jump\t// in\n    tag_250:\n        /* \"#utility.yul\":12091:12097   */\n      dup5\n        /* \"#utility.yul\":12084:12088   */\n      dup5\n        /* \"#utility.yul\":12078:12089   */\n      sload\n        /* \"#utility.yul\":12050:12141   */\n      tag_113\n      jump\t// in\n    tag_249:\n        /* \"#utility.yul\":12044:12048   */\n      dup3\n        /* \"#utility.yul\":12037:12142   */\n      sstore\n        /* \"#utility.yul\":11955:12148   */\n      pop\n        /* \"#utility.yul\":11879:12148   */\n      pop\n      pop\n      pop\n      jump\t// out\n        /* \"#utility.yul\":12154:12227   */\n    tag_118:\n        /* \"#utility.yul\":12199:12202   */\n      0x00\n        /* \"#utility.yul\":12220:12221   */\n      0x00\n        /* \"#utility.yul\":12213:12221   */\n      swap1\n      pop\n        /* \"#utility.yul\":12154:12227   */\n      swap1\n      jump\t// out\n        /* \"#utility.yul\":12233:12422   */\n    tag_119:\n        /* \"#utility.yul\":12310:12342   */\n      tag_253\n      tag_118\n      jump\t// in\n    tag_253:\n        /* \"#utility.yul\":12351:12416   */\n      tag_254\n        /* \"#utility.yul\":12409:12415   */\n      dup2\n        /* \"#utility.yul\":12401:12407   */\n      dup5\n        /* \"#utility.yul\":12395:12399   */\n      dup5\n        /* \"#utility.yul\":12351:12416   */\n      tag_117\n      jump\t// in\n    tag_254:\n        /* \"#utility.yul\":12286:12422   */\n      pop\n        /* \"#utility.yul\":12233:12422   */\n      pop\n      pop\n      jump\t// out\n        /* \"#utility.yul\":12428:12614   */\n    tag_120:\n        /* \"#utility.yul\":12488:12608   */\n    tag_256:\n        /* \"#utility.yul\":12505:12508   */\n      dup2\n        /* \"#utility.yul\":12498:12503   */\n      dup2\n        /* \"#utility.yul\":12495:12509   */\n      lt\n        /* \"#utility.yul\":12488:12608   */\n      iszero\n      tag_258\n      jumpi\n        /* \"#utility.yul\":12559:12598   */\n      tag_259\n        /* \"#utility.yul\":12596:12597   */\n      0x00\n        /* \"#utility.yul\":12589:12594   */\n      dup3\n        /* \"#utility.yul\":12559:12598   */\n      tag_119\n      jump\t// in\n    tag_259:\n        /* \"#utility.yul\":12532:12533   */\n      0x01\n        /* \"#utility.yul\":12525:12530   */\n      dup2\n        /* \"#utility.yul\":12521:12534   */\n      add\n        /* \"#utility.yul\":12512:12534   */\n      swap1\n      pop\n        /* \"#utility.yul\":12488:12608   */\n      jump(tag_256)\n    tag_258:\n        /* \"#utility.yul\":12428:12614   */\n      pop\n      pop\n      jump\t// out\n        /* \"#utility.yul\":12620:13163   */\n    tag_121:\n        /* \"#utility.yul\":12721:12723   */\n      0x1f\n        /* \"#utility.yul\":12716:12719   */\n      dup3\n        /* \"#utility.yul\":12713:12724   */\n      gt\n        /* \"#utility.yul\":12710:13156   */\n      iszero\n      tag_261\n      jumpi\n        /* \"#utility.yul\":12755:12793   */\n      tag_262\n        /* \"#utility.yul\":12787:12792   */\n      dup2\n        /* \"#utility.yul\":12755:12793   */\n      tag_110\n      jump\t// in\n    tag_262:\n        /* \"#utility.yul\":12839:12868   */\n      tag_263\n        /* \"#utility.yul\":12857:12867   */\n      dup5\n        /* \"#utility.yul\":12839:12868   */\n      tag_111\n      jump\t// in\n    tag_263:\n        /* \"#utility.yul\":12829:12837   */\n      dup2\n        /* \"#utility.yul\":12825:12869   */\n      add\n        /* \"#utility.yul\":13022:13024   */\n      0x20\n        /* \"#utility.yul\":13010:13020   */\n      dup6\n        /* \"#utility.yul\":13007:13025   */\n      lt\n        /* \"#utility.yul\":13004:13053   */\n      iszero\n      tag_264\n      jumpi\n        /* \"#utility.yul\":13043:13051   */\n      dup2\n        /* \"#utility.yul\":13028:13051   */\n      swap1\n      pop\n        /* \"#utility.yul\":13004:13053   */\n    tag_264:\n        /* \"#utility.yul\":13066:13146   */\n      tag_265\n        /* \"#utility.yul\":13122:13144   */\n      tag_266\n        /* \"#utility.yul\":13140:13143   */\n      dup6\n        /* \"#utility.yul\":13122:13144   */\n      tag_111\n      jump\t// in\n    tag_266:\n        /* \"#utility.yul\":13112:13120   */\n      dup4\n        /* \"#utility.yul\":13108:13145   */\n      add\n        /* \"#utility.yul\":13095:13106   */\n      dup3\n        /* \"#utility.yul\":13066:13146   */\n      tag_120\n      jump\t// in\n    tag_265:\n        /* \"#utility.yul\":12725:13156   */\n      pop\n      pop\n        /* \"#utility.yul\":12710:13156   */\n    tag_261:\n        /* \"#utility.yul\":12620:13163   */\n      pop\n      pop\n      pop\n      jump\t// out\n        /* \"#utility.yul\":13169:13286   */\n    tag_122:\n        /* \"#utility.yul\":13223:13231   */\n      0x00\n        /* \"#utility.yul\":13273:13278   */\n      dup3\n        /* \"#utility.yul\":13267:13271   */\n      dup3\n        /* \"#utility.yul\":13263:13279   */\n      shr\n        /* \"#utility.yul\":13242:13279   */\n      swap1\n      pop\n        /* \"#utility.yul\":13169:13286   */\n      swap3\n      swap2\n      pop\n      pop\n      jump\t// out\n        /* \"#utility.yul\":13292:13461   */\n    tag_123:\n        /* \"#utility.yul\":13336:13342   */\n      0x00\n        /* \"#utility.yul\":13369:13420   */\n      tag_269\n        /* \"#utility.yul\":13417:13418   */\n      0x00\n        /* \"#utility.yul\":13413:13419   */\n      not\n        /* \"#utility.yul\":13405:13410   */\n      dup5\n        /* \"#utility.yul\":13402:13403   */\n      0x08\n        /* \"#utility.yul\":13398:13411   */\n      mul\n        /* \"#utility.yul\":13369:13420   */\n      tag_122\n      jump\t// in\n    tag_269:\n        /* \"#utility.yul\":13365:13421   */\n      not\n        /* \"#utility.yul\":13450:13454   */\n      dup1\n        /* \"#utility.yul\":13444:13448   */\n      dup4\n        /* \"#utility.yul\":13440:13455   */\n      and\n        /* \"#utility.yul\":13430:13455   */\n      swap2\n      pop\n        /* \"#utility.yul\":13343:13461   */\n      pop\n        /* \"#utility.yul\":13292:13461   */\n      swap3\n      swap2\n      pop\n      pop\n      jump\t// out\n        /* \"#utility.yul\":13466:13761   */\n    tag_124:\n        /* \"#utility.yul\":13542:13546   */\n      0x00\n        /* \"#utility.yul\":13688:13717   */\n      tag_271\n        /* \"#utility.yul\":13713:13716   */\n      dup4\n        /* \"#utility.yul\":13707:13711   */\n      dup4\n        /* \"#utility.yul\":13688:13717   */\n      tag_123\n      jump\t// in\n    tag_271:\n        /* \"#utility.yul\":13680:13717   */\n      swap2\n      pop\n        /* \"#utility.yul\":13750:13753   */\n      dup3\n        /* \"#utility.yul\":13747:13748   */\n      0x02\n        /* \"#utility.yul\":13743:13754   */\n      mul\n        /* \"#utility.yul\":13737:13741   */\n      dup3\n        /* \"#utility.yul\":13734:13755   */\n      or\n        /* \"#utility.yul\":13726:13755   */\n      swap1\n      pop\n        /* \"#utility.yul\":13466:13761   */\n      swap3\n      swap2\n      pop\n      pop\n      jump\t// out\n        /* \"#utility.yul\":13766:15161   */\n    tag_62:\n        /* \"#utility.yul\":13883:13920   */\n      tag_273\n        /* \"#utility.yul\":13916:13919   */\n      dup3\n        /* \"#utility.yul\":13883:13920   */\n      tag_81\n      jump\t// in\n    tag_273:\n        /* \"#utility.yul\":13985:14003   */\n      0xffffffffffffffff\n        /* \"#utility.yul\":13977:13983   */\n      dup2\n        /* \"#utility.yul\":13974:14004   */\n      gt\n        /* \"#utility.yul\":13971:14027   */\n      iszero\n      tag_274\n      jumpi\n        /* \"#utility.yul\":14007:14025   */\n      tag_275\n      tag_88\n      jump\t// in\n    tag_275:\n        /* \"#utility.yul\":13971:14027   */\n    tag_274:\n        /* \"#utility.yul\":14051:14089   */\n      tag_276\n        /* \"#utility.yul\":14083:14087   */\n      dup3\n        /* \"#utility.yul\":14077:14088   */\n      sload\n        /* \"#utility.yul\":14051:14089   */\n      tag_51\n      jump\t// in\n    tag_276:\n        /* \"#utility.yul\":14136:14203   */\n      tag_277\n        /* \"#utility.yul\":14196:14202   */\n      dup3\n        /* \"#utility.yul\":14188:14194   */\n      dup3\n        /* \"#utility.yul\":14182:14186   */\n      dup6\n        /* \"#utility.yul\":14136:14203   */\n      tag_121\n      jump\t// in\n    tag_277:\n        /* \"#utility.yul\":14230:14231   */\n      0x00\n        /* \"#utility.yul\":14254:14258   */\n      0x20\n        /* \"#utility.yul\":14241:14258   */\n      swap1\n      pop\n        /* \"#utility.yul\":14286:14288   */\n      0x1f\n        /* \"#utility.yul\":14278:14284   */\n      dup4\n        /* \"#utility.yul\":14275:14289   */\n      gt\n        /* \"#utility.yul\":14303:14304   */\n      0x01\n        /* \"#utility.yul\":14298:14916   */\n      dup2\n      eq\n      tag_279\n      jumpi\n        /* \"#utility.yul\":14960:14961   */\n      0x00\n        /* \"#utility.yul\":14977:14983   */\n      dup5\n        /* \"#utility.yul\":14974:15051   */\n      iszero\n      tag_280\n      jumpi\n        /* \"#utility.yul\":15026:15035   */\n      dup3\n        /* \"#utility.yul\":15021:15024   */\n      dup8\n        /* \"#utility.yul\":15017:15036   */\n      add\n        /* \"#utility.yul\":15011:15037   */\n      mload\n        /* \"#utility.yul\":15002:15037   */\n      swap1\n      pop\n        /* \"#utility.yul\":14974:15051   */\n    tag_280:\n        /* \"#utility.yul\":15077:15144   */\n      tag_281\n        /* \"#utility.yul\":15137:15143   */\n      dup6\n        /* \"#utility.yul\":15130:15135   */\n      dup3\n        /* \"#utility.yul\":15077:15144   */\n      tag_124\n      jump\t// in\n    tag_281:\n        /* \"#utility.yul\":15071:15075   */\n      dup7\n        /* \"#utility.yul\":15064:15145   */\n      sstore\n        /* \"#utility.yul\":14933:15155   */\n      pop\n        /* \"#utility.yul\":14268:15155   */\n      jump(tag_278)\n        /* \"#utility.yul\":14298:14916   */\n    tag_279:\n        /* \"#utility.yul\":14350:14354   */\n      0x1f\n        /* \"#utility.yul\":14346:14355   */\n      not\n        /* \"#utility.yul\":14338:14344   */\n      dup5\n        /* \"#utility.yul\":14334:14356   */\n      and\n        /* \"#utility.yul\":14384:14421   */\n      tag_282\n        /* \"#utility.yul\":14416:14420   */\n      dup7\n        /* \"#utility.yul\":14384:14421   */\n      tag_110\n      jump\t// in\n    tag_282:\n        /* \"#utility.yul\":14443:14444   */\n      0x00\n        /* \"#utility.yul\":14457:14665   */\n    tag_283:\n        /* \"#utility.yul\":14471:14478   */\n      dup3\n        /* \"#utility.yul\":14468:14469   */\n      dup2\n        /* \"#utility.yul\":14465:14479   */\n      lt\n        /* \"#utility.yul\":14457:14665   */\n      iszero\n      tag_285\n      jumpi\n        /* \"#utility.yul\":14550:14559   */\n      dup5\n        /* \"#utility.yul\":14545:14548   */\n      dup10\n        /* \"#utility.yul\":14541:14560   */\n      add\n        /* \"#utility.yul\":14535:14561   */\n      mload\n        /* \"#utility.yul\":14527:14533   */\n      dup3\n        /* \"#utility.yul\":14520:14562   */\n      sstore\n        /* \"#utility.yul\":14601:14602   */\n      0x01\n        /* \"#utility.yul\":14593:14599   */\n      dup3\n        /* \"#utility.yul\":14589:14603   */\n      add\n        /* \"#utility.yul\":14579:14603   */\n      swap2\n      pop\n        /* \"#utility.yul\":14648:14650   */\n      0x20\n        /* \"#utility.yul\":14637:14646   */\n      dup6\n        /* \"#utility.yul\":14633:14651   */\n      add\n        /* \"#utility.yul\":14620:14651   */\n      swap5\n      pop\n        /* \"#utility.yul\":14494:14498   */\n      0x20\n        /* \"#utility.yul\":14491:14492   */\n      dup2\n        /* \"#utility.yul\":14487:14499   */\n      add\n        /* \"#utility.yul\":14482:14499   */\n      swap1\n      pop\n        /* \"#utility.yul\":14457:14665   */\n      jump(tag_283)\n    tag_285:\n        /* \"#utility.yul\":14693:14699   */\n      dup7\n        /* \"#utility.yul\":14684:14691   */\n      dup4\n        /* \"#utility.yul\":14681:14700   */\n      lt\n        /* \"#utility.yul\":14678:14857   */\n      iszero\n      tag_286\n      jumpi\n        /* \"#utility.yul\":14751:14760   */\n      dup5\n        /* \"#utility.yul\":14746:14749   */\n      dup10\n        /* \"#utility.yul\":14742:14761   */\n      add\n        /* \"#utility.yul\":14736:14762   */\n      mload\n        /* \"#utility.yul\":14794:14842   */\n      tag_287\n        /* \"#utility.yul\":14836:14840   */\n      0x1f\n        /* \"#utility.yul\":14828:14834   */\n      dup10\n        /* \"#utility.yul\":14824:14841   */\n      and\n        /* \"#utility.yul\":14813:14822   */\n      dup3\n        /* \"#utility.yul\":14794:14842   */\n      tag_123\n      jump\t// in\n    tag_287:\n        /* \"#utility.yul\":14786:14792   */\n      dup4\n        /* \"#utility.yul\":14779:14843   */\n      sstore\n        /* \"#utility.yul\":14701:14857   */\n      pop\n        /* \"#utility.yul\":14678:14857   */\n    tag_286:\n        /* \"#utility.yul\":14903:14904   */\n      0x01\n        /* \"#utility.yul\":14899:14900   */\n      0x02\n        /* \"#utility.yul\":14891:14897   */\n      dup9\n        /* \"#utility.yul\":14887:14901   */\n      mul\n        /* \"#utility.yul\":14883:14905   */\n      add\n        /* \"#utility.yul\":14877:14881   */\n      dup9\n        /* \"#utility.yul\":14870:14906   */\n      sstore\n        /* \"#utility.yul\":14305:14916   */\n      pop\n      pop\n      pop\n        /* \"#utility.yul\":14268:15155   */\n    tag_278:\n      pop\n        /* \"#utility.yul\":13858:15161   */\n      pop\n      pop\n      pop\n        /* \"#utility.yul\":13766:15161   */\n      pop\n      pop\n      jump\t// out\n\n    auxdata: 0xa26469706673582212202666b1d4d80d73716f9ca1f5254d1a4e937ba5eebf70474e5332e1e3cf6549f864736f6c634300081e0033\n}\n",
				"bytecode": {
					"linkReferences": {},
					"object": "60806040525f6002553480156012575f5ffd5b50335f5f6101000a81548173ffffffffffffffffffffffffffffffffffffffff021916908373ffffffffffffffffffffffffffffffffffffffff160217905550610dee8061005f5f395ff3fe608060405234801561000f575f5ffd5b506004361061007b575f3560e01c8063462e91ec11610059578063462e91ec146100ea5780638e7ea5b214610106578063a3ec138d14610125578063f851a440146101555761007b565b80630121b93f1461007f5780632d35a8a21461009b5780633477ee2e146100b9575b5f5ffd5b610099600480360381019061009491906105fc565b610173565b005b6100a36102c2565b6040516100b09190610636565b60405180910390f35b6100d360048036038101906100ce91906105fc565b6102c8565b6040516100e19291906106bf565b60405180910390f35b61010460048036038101906100ff9190610819565b61036e565b005b61010e61045f565b60405161011c9291906106bf565b60405180910390f35b61013f600480360381019061013a91906108ba565b610577565b60405161014c91906108ff565b60405180910390f35b61015d610594565b60405161016a9190610927565b60405180910390f35b60035f3373ffffffffffffffffffffffffffffffffffffffff1673ffffffffffffffffffffffffffffffffffffffff1681526020019081526020015f205f9054906101000a900460ff16156101fd576040517f08c379a00000000000000000000000000000000000000000000000000000000081526004016101f49061098a565b60405180910390fd5b6002548110610241576040517f08c379a0000000000000000000000000000000000000000000000000000000008152600401610238906109f2565b60405180910390fd5b600160035f3373ffffffffffffffffffffffffffffffffffffffff1673ffffffffffffffffffffffffffffffffffffffff1681526020019081526020015f205f6101000a81548160ff02191690831515021790555060015f8281526020019081526020015f206001015f8154809291906102ba90610a3d565b919050555050565b60025481565b6001602052805f5260405f205f91509050805f0180546102e790610ab1565b80601f016020809104026020016040519081016040528092919081815260200182805461031390610ab1565b801561035e5780601f106103355761010080835404028352916020019161035e565b820191905f5260205f20905b81548152906001019060200180831161034157829003601f168201915b5050505050908060010154905082565b5f5f9054906101000a900473ffffffffffffffffffffffffffffffffffffffff1673ffffffffffffffffffffffffffffffffffffffff163373ffffffffffffffffffffffffffffffffffffffff16146103fc576040517f08c379a00000000000000000000000000000000000000000000000000000000081526004016103f390610b2b565b60405180910390fd5b60405180604001604052808281526020015f81525060015f60025481526020019081526020015f205f820151815f0190816104379190610ce9565b506020820151816001015590505060025f81548092919061045790610a3d565b919050555050565b60605f5f5f90505f5f90505f5f90505b6002548110156104bd578260015f8381526020019081526020015f206001015411156104b05760015f8281526020019081526020015f206001015492508091505b808060010191505061046f565b5060015f8281526020019081526020015f205f0180546104dc90610ab1565b80601f016020809104026020016040519081016040528092919081815260200182805461050890610ab1565b80156105535780601f1061052a57610100808354040283529160200191610553565b820191905f5260205f20905b81548152906001019060200180831161053657829003601f168201915b5050505050935060015f8281526020019081526020015f2060010154925050509091565b6003602052805f5260405f205f915054906101000a900460ff1681565b5f5f9054906101000a900473ffffffffffffffffffffffffffffffffffffffff1681565b5f604051905090565b5f5ffd5b5f5ffd5b5f819050919050565b6105db816105c9565b81146105e5575f5ffd5b50565b5f813590506105f6816105d2565b92915050565b5f60208284031215610611576106106105c1565b5b5f61061e848285016105e8565b91505092915050565b610630816105c9565b82525050565b5f6020820190506106495f830184610627565b92915050565b5f81519050919050565b5f82825260208201905092915050565b8281835e5f83830152505050565b5f601f19601f8301169050919050565b5f6106918261064f565b61069b8185610659565b93506106ab818560208601610669565b6106b481610677565b840191505092915050565b5f6040820190508181035f8301526106d78185610687565b90506106e66020830184610627565b9392505050565b5f5ffd5b5f5ffd5b7f4e487b71000000000000000000000000000000000000000000000000000000005f52604160045260245ffd5b61072b82610677565b810181811067ffffffffffffffff8211171561074a576107496106f5565b5b80604052505050565b5f61075c6105b8565b90506107688282610722565b919050565b5f67ffffffffffffffff821115610787576107866106f5565b5b61079082610677565b9050602081019050919050565b828183375f83830152505050565b5f6107bd6107b88461076d565b610753565b9050828152602081018484840111156107d9576107d86106f1565b5b6107e484828561079d565b509392505050565b5f82601f830112610800576107ff6106ed565b5b81356108108482602086016107ab565b91505092915050565b5f6020828403121561082e5761082d6105c1565b5b5f82013567ffffffffffffffff81111561084b5761084a6105c5565b5b610857848285016107ec565b91505092915050565b5f73ffffffffffffffffffffffffffffffffffffffff82169050919050565b5f61088982610860565b9050919050565b6108998161087f565b81146108a3575f5ffd5b50565b5f813590506108b481610890565b92915050565b5f602082840312156108cf576108ce6105c1565b5b5f6108dc848285016108a6565b91505092915050565b5f8115159050919050565b6108f9816108e5565b82525050565b5f6020820190506109125f8301846108f0565b92915050565b6109218161087f565b82525050565b5f60208201905061093a5f830184610918565b92915050565b7f416c726561647920766f746564000000000000000000000000000000000000005f82015250565b5f610974600d83610659565b915061097f82610940565b602082019050919050565b5f6020820190508181035f8301526109a181610968565b9050919050565b7f43616e64696461746520646f6573206e6f7420657869737400000000000000005f82015250565b5f6109dc601883610659565b91506109e7826109a8565b602082019050919050565b5f6020820190508181035f830152610a09816109d0565b9050919050565b7f4e487b71000000000000000000000000000000000000000000000000000000005f52601160045260245ffd5b5f610a47826105c9565b91507fffffffffffffffffffffffffffffffffffffffffffffffffffffffffffffffff8203610a7957610a78610a10565b5b600182019050919050565b7f4e487b71000000000000000000000000000000000000000000000000000000005f52602260045260245ffd5b5f6002820490506001821680610ac857607f821691505b602082108103610adb57610ada610a84565b5b50919050565b7f4f6e6c792061646d696e2063616e20646f2074686973000000000000000000005f82015250565b5f610b15601683610659565b9150610b2082610ae1565b602082019050919050565b5f6020820190508181035f830152610b4281610b09565b9050919050565b5f819050815f5260205f209050919050565b5f6020601f8301049050919050565b5f82821b905092915050565b5f60088302610ba57fffffffffffffffffffffffffffffffffffffffffffffffffffffffffffffffff82610b6a565b610baf8683610b6a565b95508019841693508086168417925050509392505050565b5f819050919050565b5f610bea610be5610be0846105c9565b610bc7565b6105c9565b9050919050565b5f819050919050565b610c0383610bd0565b610c17610c0f82610bf1565b848454610b76565b825550505050565b5f5f905090565b610c2e610c1f565b610c39818484610bfa565b505050565b5b81811015610c5c57610c515f82610c26565b600181019050610c3f565b5050565b601f821115610ca157610c7281610b49565b610c7b84610b5b565b81016020851015610c8a578190505b610c9e610c9685610b5b565b830182610c3e565b50505b505050565b5f82821c905092915050565b5f610cc15f1984600802610ca6565b1980831691505092915050565b5f610cd98383610cb2565b9150826002028217905092915050565b610cf28261064f565b67ffffffffffffffff811115610d0b57610d0a6106f5565b5b610d158254610ab1565b610d20828285610c60565b5f60209050601f831160018114610d51575f8415610d3f578287015190505b610d498582610cce565b865550610db0565b601f198416610d5f86610b49565b5f5b82811015610d8657848901518255600182019150602085019450602081019050610d61565b86831015610da35784890151610d9f601f891682610cb2565b8355505b6001600288020188555050505b50505050505056fea26469706673582212202666b1d4d80d73716f9ca1f5254d1a4e937ba5eebf70474e5332e1e3cf6549f864736f6c634300081e0033",
					"opcodes": "PUSH1 0x80 PUSH1 0x40 MSTORE PUSH0 PUSH1 0x2 SSTORE CALLVALUE DUP1 ISZERO PUSH1 0x12 JUMPI PUSH0 PUSH0 REVERT JUMPDEST POP CALLER PUSH0 PUSH0 PUSH2 0x100 EXP DUP2 SLOAD DUP2 PUSH20 0xFFFFFFFFFFFFFFFFFFFFFFFFFFFFFFFFFFFFFFFF MUL NOT AND SWAP1 DUP4 PUSH20 0xFFFFFFFFFFFFFFFFFFFFFFFFFFFFFFFFFFFFFFFF AND MUL OR SWAP1 SSTORE POP PUSH2 0xDEE DUP1 PUSH2 0x5F PUSH0 CODECOPY PUSH0 RETURN INVALID PUSH1 0x80 PUSH1 0x40 MSTORE CALLVALUE DUP1 ISZERO PUSH2 0xF JUMPI PUSH0 PUSH0 REVERT JUMPDEST POP PUSH1 0x4 CALLDATASIZE LT PUSH2 0x7B JUMPI PUSH0 CALLDATALOAD PUSH1 0xE0 SHR DUP1 PUSH4 0x462E91EC GT PUSH2 0x59 JUMPI DUP1 PUSH4 0x462E91EC EQ PUSH2 0xEA JUMPI DUP1 PUSH4 0x8E7EA5B2 EQ PUSH2 0x106 JUMPI DUP1 PUSH4 0xA3EC138D EQ PUSH2 0x125 JUMPI DUP1 PUSH4 0xF851A440 EQ PUSH2 0x155 JUMPI PUSH2 0x7B JUMP JUMPDEST DUP1 PUSH4 0x121B93F EQ PUSH2 0x7F JUMPI DUP1 PUSH4 0x2D35A8A2 EQ PUSH2 0x9B JUMPI DUP1 PUSH4 0x3477EE2E EQ PUSH2 0xB9 JUMPI JUMPDEST PUSH0 PUSH0 REVERT JUMPDEST PUSH2 0x99 PUSH1 0x4 DUP1 CALLDATASIZE SUB DUP2 ADD SWAP1 PUSH2 0x94 SWAP2 SWAP1 PUSH2 0x5FC JUMP JUMPDEST PUSH2 0x173 JUMP JUMPDEST STOP JUMPDEST PUSH2 0xA3 PUSH2 0x2C2 JUMP JUMPDEST PUSH1 0x40 MLOAD PUSH2 0xB0 SWAP2 SWAP1 PUSH2 0x636 JUMP JUMPDEST PUSH1 0x40 MLOAD DUP1 SWAP2 SUB SWAP1 RETURN JUMPDEST PUSH2 0xD3 PUSH1 0x4 DUP1 CALLDATASIZE SUB DUP2 ADD SWAP1 PUSH2 0xCE SWAP2 SWAP1 PUSH2 0x5FC JUMP JUMPDEST PUSH2 0x2C8 JUMP JUMPDEST PUSH1 0x40 MLOAD PUSH2 0xE1 SWAP3 SWAP2 SWAP1 PUSH2 0x6BF JUMP JUMPDEST PUSH1 0x40 MLOAD DUP1 SWAP2 SUB SWAP1 RETURN JUMPDEST PUSH2 0x104 PUSH1 0x4 DUP1 CALLDATASIZE SUB DUP2 ADD SWAP1 PUSH2 0xFF SWAP2 SWAP1 PUSH2 0x819 JUMP JUMPDEST PUSH2 0x36E JUMP JUMPDEST STOP JUMPDEST PUSH2 0x10E PUSH2 0x45F JUMP JUMPDEST PUSH1 0x40 MLOAD PUSH2 0x11C SWAP3 SWAP2 SWAP1 PUSH2 0x6BF JUMP JUMPDEST PUSH1 0x40 MLOAD DUP1 SWAP2 SUB SWAP1 RETURN JUMPDEST PUSH2 0x13F PUSH1 0x4 DUP1 CALLDATASIZE SUB DUP2 ADD SWAP1 PUSH2 0x13A SWAP2 SWAP1 PUSH2 0x8BA JUMP JUMPDEST PUSH2 0x577 JUMP JUMPDEST PUSH1 0x40 MLOAD PUSH2 0x14C SWAP2 SWAP1 PUSH2 0x8FF JUMP JUMPDEST PUSH1 0x40 MLOAD DUP1 SWAP2 SUB SWAP1 RETURN JUMPDEST PUSH2 0x15D PUSH2 0x594 JUMP JUMPDEST PUSH1 0x40 MLOAD PUSH2 0x16A SWAP2 SWAP1 PUSH2 0x927 JUMP JUMPDEST PUSH1 0x40 MLOAD DUP1 SWAP2 SUB SWAP1 RETURN JUMPDEST PUSH1 0x3 PUSH0 CALLER PUSH20 0xFFFFFFFFFFFFFFFFFFFFFFFFFFFFFFFFFFFFFFFF AND PUSH20 0xFFFFFFFFFFFFFFFFFFFFFFFFFFFFFFFFFFFFFFFF AND DUP2 MSTORE PUSH1 0x20 ADD SWAP1 DUP2 MSTORE PUSH1 0x20 ADD PUSH0 KECCAK256 PUSH0 SWAP1 SLOAD SWAP1 PUSH2 0x100 EXP SWAP1 DIV PUSH1 0xFF AND ISZERO PUSH2 0x1FD JUMPI PUSH1 0x40 MLOAD PUSH32 0x8C379A000000000000000000000000000000000000000000000000000000000 DUP2 MSTORE PUSH1 0x4 ADD PUSH2 0x1F4 SWAP1 PUSH2 0x98A JUMP JUMPDEST PUSH1 0x40 MLOAD DUP1 SWAP2 SUB SWAP1 REVERT JUMPDEST PUSH1 0x2 SLOAD DUP2 LT PUSH2 0x241 JUMPI PUSH1 0x40 MLOAD PUSH32 0x8C379A000000000000000000000000000000000000000000000000000000000 DUP2 MSTORE PUSH1 0x4 ADD PUSH2 0x238 SWAP1 PUSH2 0x9F2 JUMP JUMPDEST PUSH1 0x40 MLOAD DUP1 SWAP2 SUB SWAP1 REVERT JUMPDEST PUSH1 0x1 PUSH1 0x3 PUSH0 CALLER PUSH20 0xFFFFFFFFFFFFFFFFFFFFFFFFFFFFFFFFFFFFFFFF AND PUSH20 0xFFFFFFFFFFFFFFFFFFFFFFFFFFFFFFFFFFFFFFFF AND DUP2 MSTORE PUSH1 0x20 ADD SWAP1 DUP2 MSTORE PUSH1 0x20 ADD PUSH0 KECCAK256 PUSH0 PUSH2 0x100 EXP DUP2 SLOAD DUP2 PUSH1 0xFF MUL NOT AND SWAP1 DUP4 ISZERO ISZERO MUL OR SWAP1 SSTORE POP PUSH1 0x1 PUSH0 DUP3 DUP2 MSTORE PUSH1 0x20 ADD SWAP1 DUP2 MSTORE PUSH1 0x20 ADD PUSH0 KECCAK256 PUSH1 0x1 ADD PUSH0 DUP2 SLOAD DUP1 SWAP3 SWAP2 SWAP1 PUSH2 0x2BA SWAP1 PUSH2 0xA3D JUMP JUMPDEST SWAP2 SWAP1 POP SSTORE POP POP JUMP JUMPDEST PUSH1 0x2 SLOAD DUP2 JUMP JUMPDEST PUSH1 0x1 PUSH1 0x20 MSTORE DUP1 PUSH0 MSTORE PUSH1 0x40 PUSH0 KECCAK256 PUSH0 SWAP2 POP SWAP1 POP DUP1 PUSH0 ADD DUP1 SLOAD PUSH2 0x2E7 SWAP1 PUSH2 0xAB1 JUMP JUMPDEST DUP1 PUSH1 0x1F ADD PUSH1 0x20 DUP1 SWAP2 DIV MUL PUSH1 0x20 ADD PUSH1 0x40 MLOAD SWAP1 DUP2 ADD PUSH1 0x40 MSTORE DUP1 SWAP3 SWAP2 SWAP1 DUP2 DUP2 MSTORE PUSH1 0x20 ADD DUP3 DUP1 SLOAD PUSH2 0x313 SWAP1 PUSH2 0xAB1 JUMP JUMPDEST DUP1 ISZERO PUSH2 0x35E JUMPI DUP1 PUSH1 0x1F LT PUSH2 0x335 JUMPI PUSH2 0x100 DUP1 DUP4 SLOAD DIV MUL DUP4 MSTORE SWAP2 PUSH1 0x20 ADD SWAP2 PUSH2 0x35E JUMP JUMPDEST DUP3 ADD SWAP2 SWAP1 PUSH0 MSTORE PUSH1 0x20 PUSH0 KECCAK256 SWAP1 JUMPDEST DUP2 SLOAD DUP2 MSTORE SWAP1 PUSH1 0x1 ADD SWAP1 PUSH1 0x20 ADD DUP1 DUP4 GT PUSH2 0x341 JUMPI DUP3 SWAP1 SUB PUSH1 0x1F AND DUP3 ADD SWAP2 JUMPDEST POP POP POP POP POP SWAP1 DUP1 PUSH1 0x1 ADD SLOAD SWAP1 POP DUP3 JUMP JUMPDEST PUSH0 PUSH0 SWAP1 SLOAD SWAP1 PUSH2 0x100 EXP SWAP1 DIV PUSH20 0xFFFFFFFFFFFFFFFFFFFFFFFFFFFFFFFFFFFFFFFF AND PUSH20 0xFFFFFFFFFFFFFFFFFFFFFFFFFFFFFFFFFFFFFFFF AND CALLER PUSH20 0xFFFFFFFFFFFFFFFFFFFFFFFFFFFFFFFFFFFFFFFF AND EQ PUSH2 0x3FC JUMPI PUSH1 0x40 MLOAD PUSH32 0x8C379A000000000000000000000000000000000000000000000000000000000 DUP2 MSTORE PUSH1 0x4 ADD PUSH2 0x3F3 SWAP1 PUSH2 0xB2B JUMP JUMPDEST PUSH1 0x40 MLOAD DUP1 SWAP2 SUB SWAP1 REVERT JUMPDEST PUSH1 0x40 MLOAD DUP1 PUSH1 0x40 ADD PUSH1 0x40 MSTORE DUP1 DUP3 DUP2 MSTORE PUSH1 0x20 ADD PUSH0 DUP2 MSTORE POP PUSH1 0x1 PUSH0 PUSH1 0x2 SLOAD DUP2 MSTORE PUSH1 0x20 ADD SWAP1 DUP2 MSTORE PUSH1 0x20 ADD PUSH0 KECCAK256 PUSH0 DUP3 ADD MLOAD DUP2 PUSH0 ADD SWAP1 DUP2 PUSH2 0x437 SWAP2 SWAP1 PUSH2 0xCE9 JUMP JUMPDEST POP PUSH1 0x20 DUP3 ADD MLOAD DUP2 PUSH1 0x1 ADD SSTORE SWAP1 POP POP PUSH1 0x2 PUSH0 DUP2 SLOAD DUP1 SWAP3 SWAP2 SWAP1 PUSH2 0x457 SWAP1 PUSH2 0xA3D JUMP JUMPDEST SWAP2 SWAP1 POP SSTORE POP POP JUMP JUMPDEST PUSH1 0x60 PUSH0 PUSH0 PUSH0 SWAP1 POP PUSH0 PUSH0 SWAP1 POP PUSH0 PUSH0 SWAP1 POP JUMPDEST PUSH1 0x2 SLOAD DUP2 LT ISZERO PUSH2 0x4BD JUMPI DUP3 PUSH1 0x1 PUSH0 DUP4 DUP2 MSTORE PUSH1 0x20 ADD SWAP1 DUP2 MSTORE PUSH1 0x20 ADD PUSH0 KECCAK256 PUSH1 0x1 ADD SLOAD GT ISZERO PUSH2 0x4B0 JUMPI PUSH1 0x1 PUSH0 DUP3 DUP2 MSTORE PUSH1 0x20 ADD SWAP1 DUP2 MSTORE PUSH1 0x20 ADD PUSH0 KECCAK256 PUSH1 0x1 ADD SLOAD SWAP3 POP DUP1 SWAP2 POP JUMPDEST DUP1 DUP1 PUSH1 0x1 ADD SWAP2 POP POP PUSH2 0x46F JUMP JUMPDEST POP PUSH1 0x1 PUSH0 DUP3 DUP2 MSTORE PUSH1 0x20 ADD SWAP1 DUP2 MSTORE PUSH1 0x20 ADD PUSH0 KECCAK256 PUSH0 ADD DUP1 SLOAD PUSH2 0x4DC SWAP1 PUSH2 0xAB1 JUMP JUMPDEST DUP1 PUSH1 0x1F ADD PUSH1 0x20 DUP1 SWAP2 DIV MUL PUSH1 0x20 ADD PUSH1 0x40 MLOAD SWAP1 DUP2 ADD PUSH1 0x40 MSTORE DUP1 SWAP3 SWAP2 SWAP1 DUP2 DUP2 MSTORE PUSH1 0x20 ADD DUP3 DUP1 SLOAD PUSH2 0x508 SWAP1 PUSH2 0xAB1 JUMP JUMPDEST DUP1 ISZERO PUSH2 0x553 JUMPI DUP1 PUSH1 0x1F LT PUSH2 0x52A JUMPI PUSH2 0x100 DUP1 DUP4 SLOAD DIV MUL DUP4 MSTORE SWAP2 PUSH1 0x20 ADD SWAP2 PUSH2 0x553 JUMP JUMPDEST DUP3 ADD SWAP2 SWAP1 PUSH0 MSTORE PUSH1 0x20 PUSH0 KECCAK256 SWAP1 JUMPDEST DUP2 SLOAD DUP2 MSTORE SWAP1 PUSH1 0x1 ADD SWAP1 PUSH1 0x20 ADD DUP1 DUP4 GT PUSH2 0x536 JUMPI DUP3 SWAP1 SUB PUSH1 0x1F AND DUP3 ADD SWAP2 JUMPDEST POP POP POP POP POP SWAP4 POP PUSH1 0x1 PUSH0 DUP3 DUP2 MSTORE PUSH1 0x20 ADD SWAP1 DUP2 MSTORE PUSH1 0x20 ADD PUSH0 KECCAK256 PUSH1 0x1 ADD SLOAD SWAP3 POP POP POP SWAP1 SWAP2 JUMP JUMPDEST PUSH1 0x3 PUSH1 0x20 MSTORE DUP1 PUSH0 MSTORE PUSH1 0x40 PUSH0 KECCAK256 PUSH0 SWAP2 POP SLOAD SWAP1 PUSH2 0x100 EXP SWAP1 DIV PUSH1 0xFF AND DUP2 JUMP JUMPDEST PUSH0 PUSH0 SWAP1 SLOAD SWAP1 PUSH2 0x100 EXP SWAP1 DIV PUSH20 0xFFFFFFFFFFFFFFFFFFFFFFFFFFFFFFFFFFFFFFFF AND DUP2 JUMP JUMPDEST PUSH0 PUSH1 0x40 MLOAD SWAP1 POP SWAP1 JUMP JUMPDEST PUSH0 PUSH0 REVERT JUMPDEST PUSH0 PUSH0 REVERT JUMPDEST PUSH0 DUP2 SWAP1 POP SWAP2 SWAP1 POP JUMP JUMPDEST PUSH2 0x5DB DUP2 PUSH2 0x5C9 JUMP JUMPDEST DUP2 EQ PUSH2 0x5E5 JUMPI PUSH0 PUSH0 REVERT JUMPDEST POP JUMP JUMPDEST PUSH0 DUP2 CALLDATALOAD SWAP1 POP PUSH2 0x5F6 DUP2 PUSH2 0x5D2 JUMP JUMPDEST SWAP3 SWAP2 POP POP JUMP JUMPDEST PUSH0 PUSH1 0x20 DUP3 DUP5 SUB SLT ISZERO PUSH2 0x611 JUMPI PUSH2 0x610 PUSH2 0x5C1 JUMP JUMPDEST JUMPDEST PUSH0 PUSH2 0x61E DUP5 DUP3 DUP6 ADD PUSH2 0x5E8 JUMP JUMPDEST SWAP2 POP POP SWAP3 SWAP2 POP POP JUMP JUMPDEST PUSH2 0x630 DUP2 PUSH2 0x5C9 JUMP JUMPDEST DUP3 MSTORE POP POP JUMP JUMPDEST PUSH0 PUSH1 0x20 DUP3 ADD SWAP1 POP PUSH2 0x649 PUSH0 DUP4 ADD DUP5 PUSH2 0x627 JUMP JUMPDEST SWAP3 SWAP2 POP POP JUMP JUMPDEST PUSH0 DUP2 MLOAD SWAP1 POP SWAP2 SWAP1 POP JUMP JUMPDEST PUSH0 DUP3 DUP3 MSTORE PUSH1 0x20 DUP3 ADD SWAP1 POP SWAP3 SWAP2 POP POP JUMP JUMPDEST DUP3 DUP2 DUP4 MCOPY PUSH0 DUP4 DUP4 ADD MSTORE POP POP POP JUMP JUMPDEST PUSH0 PUSH1 0x1F NOT PUSH1 0x1F DUP4 ADD AND SWAP1 POP SWAP2 SWAP1 POP JUMP JUMPDEST PUSH0 PUSH2 0x691 DUP3 PUSH2 0x64F JUMP JUMPDEST PUSH2 0x69B DUP2 DUP6 PUSH2 0x659 JUMP JUMPDEST SWAP4 POP PUSH2 0x6AB DUP2 DUP6 PUSH1 0x20 DUP7 ADD PUSH2 0x669 JUMP JUMPDEST PUSH2 0x6B4 DUP2 PUSH2 0x677 JUMP JUMPDEST DUP5 ADD SWAP2 POP POP SWAP3 SWAP2 POP POP JUMP JUMPDEST PUSH0 PUSH1 0x40 DUP3 ADD SWAP1 POP DUP2 DUP2 SUB PUSH0 DUP4 ADD MSTORE PUSH2 0x6D7 DUP2 DUP6 PUSH2 0x687 JUMP JUMPDEST SWAP1 POP PUSH2 0x6E6 PUSH1 0x20 DUP4 ADD DUP5 PUSH2 0x627 JUMP JUMPDEST SWAP4 SWAP3 POP POP POP JUMP JUMPDEST PUSH0 PUSH0 REVERT JUMPDEST PUSH0 PUSH0 REVERT JUMPDEST PUSH32 0x4E487B7100000000000000000000000000000000000000000000000000000000 PUSH0 MSTORE PUSH1 0x41 PUSH1 0x4 MSTORE PUSH1 0x24 PUSH0 REVERT JUMPDEST PUSH2 0x72B DUP3 PUSH2 0x677 JUMP JUMPDEST DUP2 ADD DUP2 DUP2 LT PUSH8 0xFFFFFFFFFFFFFFFF DUP3 GT OR ISZERO PUSH2 0x74A JUMPI PUSH2 0x749 PUSH2 0x6F5 JUMP JUMPDEST JUMPDEST DUP1 PUSH1 0x40 MSTORE POP POP POP JUMP JUMPDEST PUSH0 PUSH2 0x75C PUSH2 0x5B8 JUMP JUMPDEST SWAP1 POP PUSH2 0x768 DUP3 DUP3 PUSH2 0x722 JUMP JUMPDEST SWAP2 SWAP1 POP JUMP JUMPDEST PUSH0 PUSH8 0xFFFFFFFFFFFFFFFF DUP3 GT ISZERO PUSH2 0x787 JUMPI PUSH2 0x786 PUSH2 0x6F5 JUMP JUMPDEST JUMPDEST PUSH2 0x790 DUP3 PUSH2 0x677 JUMP JUMPDEST SWAP1 POP PUSH1 0x20 DUP2 ADD SWAP1 POP SWAP2 SWAP1 POP JUMP JUMPDEST DUP3 DUP2 DUP4 CALLDATACOPY PUSH0 DUP4 DUP4 ADD MSTORE POP POP POP JUMP JUMPDEST PUSH0 PUSH2 0x7BD PUSH2 0x7B8 DUP5 PUSH2 0x76D JUMP JUMPDEST PUSH2 0x753 JUMP JUMPDEST SWAP1 POP DUP3 DUP2 MSTORE PUSH1 0x20 DUP2 ADD DUP5 DUP5 DUP5 ADD GT ISZERO PUSH2 0x7D9 JUMPI PUSH2 0x7D8 PUSH2 0x6F1 JUMP JUMPDEST JUMPDEST PUSH2 0x7E4 DUP5 DUP3 DUP6 PUSH2 0x79D JUMP JUMPDEST POP SWAP4 SWAP3 POP POP POP JUMP JUMPDEST PUSH0 DUP3 PUSH1 0x1F DUP4 ADD SLT PUSH2 0x800 JUMPI PUSH2 0x7FF PUSH2 0x6ED JUMP JUMPDEST JUMPDEST DUP2 CALLDATALOAD PUSH2 0x810 DUP5 DUP3 PUSH1 0x20 DUP7 ADD PUSH2 0x7AB JUMP JUMPDEST SWAP2 POP POP SWAP3 SWAP2 POP POP JUMP JUMPDEST PUSH0 PUSH1 0x20 DUP3 DUP5 SUB SLT ISZERO PUSH2 0x82E JUMPI PUSH2 0x82D PUSH2 0x5C1 JUMP JUMPDEST JUMPDEST PUSH0 DUP3 ADD CALLDATALOAD PUSH8 0xFFFFFFFFFFFFFFFF DUP2 GT ISZERO PUSH2 0x84B JUMPI PUSH2 0x84A PUSH2 0x5C5 JUMP JUMPDEST JUMPDEST PUSH2 0x857 DUP5 DUP3 DUP6 ADD PUSH2 0x7EC JUMP JUMPDEST SWAP2 POP POP SWAP3 SWAP2 POP POP JUMP JUMPDEST PUSH0 PUSH20 0xFFFFFFFFFFFFFFFFFFFFFFFFFFFFFFFFFFFFFFFF DUP3 AND SWAP1 POP SWAP2 SWAP1 POP JUMP JUMPDEST PUSH0 PUSH2 0x889 DUP3 PUSH2 0x860 JUMP JUMPDEST SWAP1 POP SWAP2 SWAP1 POP JUMP JUMPDEST PUSH2 0x899 DUP2 PUSH2 0x87F JUMP JUMPDEST DUP2 EQ PUSH2 0x8A3 JUMPI PUSH0 PUSH0 REVERT JUMPDEST POP JUMP JUMPDEST PUSH0 DUP2 CALLDATALOAD SWAP1 POP PUSH2 0x8B4 DUP2 PUSH2 0x890 JUMP JUMPDEST SWAP3 SWAP2 POP POP JUMP JUMPDEST PUSH0 PUSH1 0x20 DUP3 DUP5 SUB SLT ISZERO PUSH2 0x8CF JUMPI PUSH2 0x8CE PUSH2 0x5C1 JUMP JUMPDEST JUMPDEST PUSH0 PUSH2 0x8DC DUP5 DUP3 DUP6 ADD PUSH2 0x8A6 JUMP JUMPDEST SWAP2 POP POP SWAP3 SWAP2 POP POP JUMP JUMPDEST PUSH0 DUP2 ISZERO ISZERO SWAP1 POP SWAP2 SWAP1 POP JUMP JUMPDEST PUSH2 0x8F9 DUP2 PUSH2 0x8E5 JUMP JUMPDEST DUP3 MSTORE POP POP JUMP JUMPDEST PUSH0 PUSH1 0x20 DUP3 ADD SWAP1 POP PUSH2 0x912 PUSH0 DUP4 ADD DUP5 PUSH2 0x8F0 JUMP JUMPDEST SWAP3 SWAP2 POP POP JUMP JUMPDEST PUSH2 0x921 DUP2 PUSH2 0x87F JUMP JUMPDEST DUP3 MSTORE POP POP JUMP JUMPDEST PUSH0 PUSH1 0x20 DUP3 ADD SWAP1 POP PUSH2 0x93A PUSH0 DUP4 ADD DUP5 PUSH2 0x918 JUMP JUMPDEST SWAP3 SWAP2 POP POP JUMP JUMPDEST PUSH32 0x416C726561647920766F74656400000000000000000000000000000000000000 PUSH0 DUP3 ADD MSTORE POP JUMP JUMPDEST PUSH0 PUSH2 0x974 PUSH1 0xD DUP4 PUSH2 0x659 JUMP JUMPDEST SWAP2 POP PUSH2 0x97F DUP3 PUSH2 0x940 JUMP JUMPDEST PUSH1 0x20 DUP3 ADD SWAP1 POP SWAP2 SWAP1 POP JUMP JUMPDEST PUSH0 PUSH1 0x20 DUP3 ADD SWAP1 POP DUP2 DUP2 SUB PUSH0 DUP4 ADD MSTORE PUSH2 0x9A1 DUP2 PUSH2 0x968 JUMP JUMPDEST SWAP1 POP SWAP2 SWAP1 POP JUMP JUMPDEST PUSH32 0x43616E64696461746520646F6573206E6F742065786973740000000000000000 PUSH0 DUP3 ADD MSTORE POP JUMP JUMPDEST PUSH0 PUSH2 0x9DC PUSH1 0x18 DUP4 PUSH2 0x659 JUMP JUMPDEST SWAP2 POP PUSH2 0x9E7 DUP3 PUSH2 0x9A8 JUMP JUMPDEST PUSH1 0x20 DUP3 ADD SWAP1 POP SWAP2 SWAP1 POP JUMP JUMPDEST PUSH0 PUSH1 0x20 DUP3 ADD SWAP1 POP DUP2 DUP2 SUB PUSH0 DUP4 ADD MSTORE PUSH2 0xA09 DUP2 PUSH2 0x9D0 JUMP JUMPDEST SWAP1 POP SWAP2 SWAP1 POP JUMP JUMPDEST PUSH32 0x4E487B7100000000000000000000000000000000000000000000000000000000 PUSH0 MSTORE PUSH1 0x11 PUSH1 0x4 MSTORE PUSH1 0x24 PUSH0 REVERT JUMPDEST PUSH0 PUSH2 0xA47 DUP3 PUSH2 0x5C9 JUMP JUMPDEST SWAP2 POP PUSH32 0xFFFFFFFFFFFFFFFFFFFFFFFFFFFFFFFFFFFFFFFFFFFFFFFFFFFFFFFFFFFFFFFF DUP3 SUB PUSH2 0xA79 JUMPI PUSH2 0xA78 PUSH2 0xA10 JUMP JUMPDEST JUMPDEST PUSH1 0x1 DUP3 ADD SWAP1 POP SWAP2 SWAP1 POP JUMP JUMPDEST PUSH32 0x4E487B7100000000000000000000000000000000000000000000000000000000 PUSH0 MSTORE PUSH1 0x22 PUSH1 0x4 MSTORE PUSH1 0x24 PUSH0 REVERT JUMPDEST PUSH0 PUSH1 0x2 DUP3 DIV SWAP1 POP PUSH1 0x1 DUP3 AND DUP1 PUSH2 0xAC8 JUMPI PUSH1 0x7F DUP3 AND SWAP2 POP JUMPDEST PUSH1 0x20 DUP3 LT DUP2 SUB PUSH2 0xADB JUMPI PUSH2 0xADA PUSH2 0xA84 JUMP JUMPDEST JUMPDEST POP SWAP2 SWAP1 POP JUMP JUMPDEST PUSH32 0x4F6E6C792061646D696E2063616E20646F207468697300000000000000000000 PUSH0 DUP3 ADD MSTORE POP JUMP JUMPDEST PUSH0 PUSH2 0xB15 PUSH1 0x16 DUP4 PUSH2 0x659 JUMP JUMPDEST SWAP2 POP PUSH2 0xB20 DUP3 PUSH2 0xAE1 JUMP JUMPDEST PUSH1 0x20 DUP3 ADD SWAP1 POP SWAP2 SWAP1 POP JUMP JUMPDEST PUSH0 PUSH1 0x20 DUP3 ADD SWAP1 POP DUP2 DUP2 SUB PUSH0 DUP4 ADD MSTORE PUSH2 0xB42 DUP2 PUSH2 0xB09 JUMP JUMPDEST SWAP1 POP SWAP2 SWAP1 POP JUMP JUMPDEST PUSH0 DUP2 SWAP1 POP DUP2 PUSH0 MSTORE PUSH1 0x20 PUSH0 KECCAK256 SWAP1 POP SWAP2 SWAP1 POP JUMP JUMPDEST PUSH0 PUSH1 0x20 PUSH1 0x1F DUP4 ADD DIV SWAP1 POP SWAP2 SWAP1 POP JUMP JUMPDEST PUSH0 DUP3 DUP3 SHL SWAP1 POP SWAP3 SWAP2 POP POP JUMP JUMPDEST PUSH0 PUSH1 0x8 DUP4 MUL PUSH2 0xBA5 PUSH32 0xFFFFFFFFFFFFFFFFFFFFFFFFFFFFFFFFFFFFFFFFFFFFFFFFFFFFFFFFFFFFFFFF DUP3 PUSH2 0xB6A JUMP JUMPDEST PUSH2 0xBAF DUP7 DUP4 PUSH2 0xB6A JUMP JUMPDEST SWAP6 POP DUP1 NOT DUP5 AND SWAP4 POP DUP1 DUP7 AND DUP5 OR SWAP3 POP POP POP SWAP4 SWAP3 POP POP POP JUMP JUMPDEST PUSH0 DUP2 SWAP1 POP SWAP2 SWAP1 POP JUMP JUMPDEST PUSH0 PUSH2 0xBEA PUSH2 0xBE5 PUSH2 0xBE0 DUP5 PUSH2 0x5C9 JUMP JUMPDEST PUSH2 0xBC7 JUMP JUMPDEST PUSH2 0x5C9 JUMP JUMPDEST SWAP1 POP SWAP2 SWAP1 POP JUMP JUMPDEST PUSH0 DUP2 SWAP1 POP SWAP2 SWAP1 POP JUMP JUMPDEST PUSH2 0xC03 DUP4 PUSH2 0xBD0 JUMP JUMPDEST PUSH2 0xC17 PUSH2 0xC0F DUP3 PUSH2 0xBF1 JUMP JUMPDEST DUP5 DUP5 SLOAD PUSH2 0xB76 JUMP JUMPDEST DUP3 SSTORE POP POP POP POP JUMP JUMPDEST PUSH0 PUSH0 SWAP1 POP SWAP1 JUMP JUMPDEST PUSH2 0xC2E PUSH2 0xC1F JUMP JUMPDEST PUSH2 0xC39 DUP2 DUP5 DUP5 PUSH2 0xBFA JUMP JUMPDEST POP POP POP JUMP JUMPDEST JUMPDEST DUP2 DUP2 LT ISZERO PUSH2 0xC5C JUMPI PUSH2 0xC51 PUSH0 DUP3 PUSH2 0xC26 JUMP JUMPDEST PUSH1 0x1 DUP2 ADD SWAP1 POP PUSH2 0xC3F JUMP JUMPDEST POP POP JUMP JUMPDEST PUSH1 0x1F DUP3 GT ISZERO PUSH2 0xCA1 JUMPI PUSH2 0xC72 DUP2 PUSH2 0xB49 JUMP JUMPDEST PUSH2 0xC7B DUP5 PUSH2 0xB5B JUMP JUMPDEST DUP2 ADD PUSH1 0x20 DUP6 LT ISZERO PUSH2 0xC8A JUMPI DUP2 SWAP1 POP JUMPDEST PUSH2 0xC9E PUSH2 0xC96 DUP6 PUSH2 0xB5B JUMP JUMPDEST DUP4 ADD DUP3 PUSH2 0xC3E JUMP JUMPDEST POP POP JUMPDEST POP POP POP JUMP JUMPDEST PUSH0 DUP3 DUP3 SHR SWAP1 POP SWAP3 SWAP2 POP POP JUMP JUMPDEST PUSH0 PUSH2 0xCC1 PUSH0 NOT DUP5 PUSH1 0x8 MUL PUSH2 0xCA6 JUMP JUMPDEST NOT DUP1 DUP4 AND SWAP2 POP POP SWAP3 SWAP2 POP POP JUMP JUMPDEST PUSH0 PUSH2 0xCD9 DUP4 DUP4 PUSH2 0xCB2 JUMP JUMPDEST SWAP2 POP DUP3 PUSH1 0x2 MUL DUP3 OR SWAP1 POP SWAP3 SWAP2 POP POP JUMP JUMPDEST PUSH2 0xCF2 DUP3 PUSH2 0x64F JUMP JUMPDEST PUSH8 0xFFFFFFFFFFFFFFFF DUP2 GT ISZERO PUSH2 0xD0B JUMPI PUSH2 0xD0A PUSH2 0x6F5 JUMP JUMPDEST JUMPDEST PUSH2 0xD15 DUP3 SLOAD PUSH2 0xAB1 JUMP JUMPDEST PUSH2 0xD20 DUP3 DUP3 DUP6 PUSH2 0xC60 JUMP JUMPDEST PUSH0 PUSH1 0x20 SWAP1 POP PUSH1 0x1F DUP4 GT PUSH1 0x1 DUP2 EQ PUSH2 0xD51 JUMPI PUSH0 DUP5 ISZERO PUSH2 0xD3F JUMPI DUP3 DUP8 ADD MLOAD SWAP1 POP JUMPDEST PUSH2 0xD49 DUP6 DUP3 PUSH2 0xCCE JUMP JUMPDEST DUP7 SSTORE POP PUSH2 0xDB0 JUMP JUMPDEST PUSH1 0x1F NOT DUP5 AND PUSH2 0xD5F DUP7 PUSH2 0xB49 JUMP JUMPDEST PUSH0 JUMPDEST DUP3 DUP2 LT ISZERO PUSH2 0xD86 JUMPI DUP5 DUP10 ADD MLOAD DUP3 SSTORE PUSH1 0x1 DUP3 ADD SWAP2 POP PUSH1 0x20 DUP6 ADD SWAP5 POP PUSH1 0x20 DUP2 ADD SWAP1 POP PUSH2 0xD61 JUMP JUMPDEST DUP7 DUP4 LT ISZERO PUSH2 0xDA3 JUMPI DUP5 DUP10 ADD MLOAD PUSH2 0xD9F PUSH1 0x1F DUP10 AND DUP3 PUSH2 0xCB2 JUMP JUMPDEST DUP4 SSTORE POP JUMPDEST PUSH1 0x1 PUSH1 0x2 DUP9 MUL ADD DUP9 SSTORE POP POP POP JUMPDEST POP POP POP POP POP POP JUMP INVALID LOG2 PUSH5 0x6970667358 0x22 SLT KECCAK256 0x26 PUSH7 0xB1D4D80D73716F SWAP13 LOG1 CREATE2 0x25 0x4D BYTE 0x4E SWAP4 PUSH28 0xA5EEBF70474E5332E1E3CF6549F864736F6C634300081E0033000000 "
				},
				"gasEstimates": {
					"creation": {
						"codeDepositCost": "713200",
						"executionCost": "30014",
						"totalCost": "743214"
					},
					"external": {
						"addCandidate(string)": "infinite",
						"admin()": "2573",
						"candidates(uint256)": "infinite",
						"candidatesCount()": "2448",
						"getWinner()": "infinite",
						"vote(uint256)": "infinite",
						"voters(address)": "2877"
					}
				},
				"methodIdentifiers": {
					"addCandidate(string)": "462e91ec",
					"admin()": "f851a440",
					"candidates(uint256)": "3477ee2e",
					"candidatesCount()": "2d35a8a2",
					"getWinner()": "8e7ea5b2",
					"vote(uint256)": "0121b93f",
					"voters(address)": "a3ec138d"
				}
			},
			"storageLayout": {
				"storage": [
					{
						"astId": 3,
						"contract": "contracts/Voting.sol:Voting",
						"label": "admin",
						"offset": 0,
						"slot": "0",
						"type": "t_address"
					},
					{
						"astId": 22,
						"contract": "contracts/Voting.sol:Voting",
						"label": "candidates",
						"offset": 0,
						"slot": "1",
						"type": "t_mapping(t_uint256,t_struct(Candidate)17_storage)"
					},
					{
						"astId": 25,
						"contract": "contracts/Voting.sol:Voting",
						"label": "candidatesCount",
						"offset": 0,
						"slot": "2",
						"type": "t_uint256"
					},
					{
						"astId": 29,
						"contract": "contracts/Voting.sol:Voting",
						"label": "voters",
						"offset": 0,
						"slot": "3",
						"type": "t_mapping(t_address,t_bool)"
					}
				],
				"types": {
					"t_address": {
						"encoding": "inplace",
						"label": "address",
						"numberOfBytes": "20"
					},
					"t_bool": {
						"encoding": "inplace",
						"label": "bool",
						"numberOfBytes": "1"
					},
					"t_mapping(t_address,t_bool)": {
						"encoding": "mapping",
						"key": "t_address",
						"label": "mapping(address => bool)",
						"numberOfBytes": "32",
						"value": "t_bool"
					},
					"t_mapping(t_uint256,t_struct(Candidate)17_storage)": {
						"encoding": "mapping",
						"key": "t_uint256",
						"label": "mapping(uint256 => struct Voting.Candidate)",
						"numberOfBytes": "32",
						"value": "t_struct(Candidate)17_storage"
					},
					"t_string_storage": {
						"encoding": "bytes",
						"label": "string",
						"numberOfBytes": "32"
					},
					"t_struct(Candidate)17_storage": {
						"encoding": "inplace",
						"label": "struct Voting.Candidate",
						"members": [
							{
								"astId": 14,
								"contract": "contracts/Voting.sol:Voting",
								"label": "name",
								"offset": 0,
								"slot": "0",
								"type": "t_string_storage"
							},
							{
								"astId": 16,
								"contract": "contracts/Voting.sol:Voting",
								"label": "voteCount",
								"offset": 0,
								"slot": "1",
								"type": "t_uint256"
							}
						],
						"numberOfBytes": "64"
					},
					"t_uint256": {
						"encoding": "inplace",
						"label": "uint256",
						"numberOfBytes": "32"
					}
				}
			},
			"userdoc": {
				"kind": "user",
				"methods": {},
				"version": 1
			}
		}
	}
}